:100000000C9477010C949F010C949F010C949F0118
:100010000C949F010C949F010C949F010C949F01E0
:100020000C949F010C949F010C9421110C94A81125
:100030000C949F010C949F010C949F010C949F01C0
:100040000C949F010C949F010C949F010C949F01B0
:100050000C949F010C949F010C949F010C949709A0
:100060000C949F010C949F010C949F010C949F0190
:100070000C949F010C949F010C949F010C949F0180
:100080000C949F010C949F010C949F010C949F0170
:100090000C949F010C949F010C949F010C949F0160
:1000A0000C949F010C949F010C949F010000000090
:1000B000240027002A002D00300000000000250049
:1000C00028002B002E003100000000002300260035
:1000D00029002C002F000404040404030405020278
:1000E00002020403020202020606060606060404D1
:1000F00002020204040802011040804010204080E7
:10010000408008020401804020100201108010206D
:1001100040400000000200080E0000030401000B34
:1001200000000000000000000000000000000000CF
:10013000070605040100080A0B0C0D09080B000254
:10014000020201000904000001020200000524006F
:100150001001052401010104240206052406000102
:100160000705810310004009040100020A00000095
:100170000705020240000007058302400000040357
:1001800009042203410072006400750069006E00DA
:100190006F0020004C0065006F006E00610072006F
:1001A00064006F001803410072006400750069006C
:1001B0006E006F0020004C004C0043001201000252
:1001C00000000040412336800001010200011201BD
:1001D00000020200004041233680000101020001BC
:1001E00000C18081C105010902A1010901A10085A9
:1001F00001050919012903150025019503750181E0
:100200000295017505810305010930093109381589
:1002100081257F750895038106C0C005010906A1E7
:10022000018502050719E029E715002501750195EB
:10023000088102950175088103950675081500254A
:10024000650507190029658100C009040200010342
:100250000000000921010100012265000705840357
:1002600040000100000000000000002A2B280000D0
:10027000000000000000000000000000000000007E
:100280000000002C9EB4A0A1A2A434A6A7A5AE365F
:100290002D3738271E1F20212223242526B333B6CD
:1002A0002EB7B89F8485868788898A8B8C8D8E8FA0
:1002B000909192939495969798999A9B9C9D2F31A3
:1002C00030A3AD350405060708090A0B0C0D0E0F07
:1002D000101112131415161718191A1B1C1DAFB183
:1002E000B0B50000F608840C5D10C117EF081124AA
:1002F0001FBECFEFDAE0DEBFCDBF13E0A0E0B1E07C
:10030000E2E1F7E302C005900D92A232B107D9F7FE
:1003100015E0A2E2B3E001C01D92AC33B107E1F7F2
:1003200012E0CCEED2E004C02297FE010E94781BBE
:10033000C43ED107C9F70E9484090C947C1B0C941D
:100340000000FB01DC0102C001900D9241505040C1
:10035000D8F708958091E3029091E40208958EEC1D
:1003600093E06091E1020E94B8148FEF9FEF9093A9
:10037000E2028093E1021092E4021092E3020895F7
:100380000F931F930EEC13E0C8016091E1020E94ED
:10039000B814C8014CED55E060E070E02CED31E0A0
:1003A0000E944915992787FD90959093E2028093CA
:1003B000E1021F910F91089581E090E09093E40293
:1003C0008093E3028EEC93E048EE53E060E070E04F
:1003D0002DEF32E00E945215992787FD909590935A
:1003E000E2028093E10208950FC084E195E060E0AD
:1003F00071E00E94970F8091220390912303019650
:1004000090932303809322038091220390912303EE
:1004100047975CF30895CF93DF93109223031092D4
:100420002203C0E0D0E084E195E060E071E00E944A
:10043000970F2196C731D105B1F7DF91CF9108957C
:10044000EF92FF920F931F9304E115E081E0E82EF5
:1004500081E0F82EC801B7010E94970F8091220316
:100460009091230301969093230380932203C80164
:1004700061E171E00E94970F809122039091230324
:1004800001969093230380932203C80167E171E0F2
:100490000E94970F809122039091230301969093DD
:1004A000230380932203C8016FE171E00E94970F3C
:1004B00080912203909123030196909323038093CC
:1004C0002203C8016BE271E00E94970F8091220322
:1004D0009091230301969093230380932203C801F4
:1004E000B7010E94970F80912203909123030196F8
:1004F0009093230380932203C80160E071E00E947F
:10050000970F8091220390912303019690932303E8
:10051000809322031F910F91FF90EF900895CF9247
:10052000DF92EF92FF920F931F93CF93DF930E947E
:10053000AF010E940B020E94200288E794E00E9413
:1005400052147C0184E195E065E371E00E949A0E0B
:10055000C7010E945313BC0184E195E00E949A0EEA
:1005600084E195E06DE371E00E94970F8091220392
:100570009091230301969093230380932203C70154
:100580000E9491136C01C0E0D0E025C0C7016C2F20
:100590000E9484138C01C816D90629F484E195E0E1
:1005A00065E471E004C084E195E068E471E00E94D4
:1005B0009A0EC8010E945313BC0184E195E00E9489
:1005C000970F809122039091230301969093230328
:1005D000809322032196C7010E94951390E0C817CB
:1005E000D907A4F20E94F401DF91CF911F910F91DE
:1005F000FF90EF90DF90CF9008950F931F930E948C
:100600000B02009122031091230388E894E00E94DA
:10061000C306080F191F10932303009322038BEACC
:1006200094E00E946303080F191F109323030093A3
:10063000220382EC94E00E947704080F191F1093A4
:1006400023030093220385E994E00E947205080FBA
:10065000191F109323030093220382EB94E00E945E
:100660000208080F191F109323030093220304E1CB
:1006700015E0C8016BE471E00E949A0E0E942113FC
:10068000BC01C8014AE050E00E94680EC8016AE55A
:1006900071E00E94970F80912203909123030196AD
:1006A00090932303809322030E94F4011F910F91E2
:1006B0000895FC0172836183548343830895FC0190
:1006C000858196810895CF93DF93EC0184E195E0D5
:1006D00061E671E00E949A0E8881882379F084E1B6
:1006E00095E067E671E00E949A0E6D817E8184E15B
:1006F00095E04AE050E00E947B0E06C084E195E060
:1007000065E771E00E94970F81E090E0DF91CF9163
:100710000895FC01CB016F3F710514F08EEF90E05E
:1007200097FF02C080E090E0968385836EEF70E0D3
:10073000681B790B83810E94D40A08950F931F933D
:100740008C0181E994E06AE070E00E947906F8018A
:10075000818161E00E94060CC8016EEF70E00E948A
:10076000890381E0F80180831F910F9108950F9311
:100770001F938C0181E994E060E070E00E947906AB
:10078000F801818160E00E94060CF801838160E03D
:100790000E94790BF80110821F910F9108950F9319
:1007A0001F938C01FC01818161E00E94790BF801AB
:1007B000818160E00E94060CF801838161E00E9463
:1007C000790BF80110821F910F910895EF92FF921B
:1007D0000F931F938CE090E00E94F112F82EE92E07
:1007E0006AE771E00E94571386E090E00E94F112E0
:1007F000182F092F6EE771E00E9498138F2D9E2D00
:10080000612F702F48E654E00E94871486E090E044
:100810000E94F112182F092F66E871E00E949813C8
:100820008F2D9E2D612F702F43E654E00E94871478
:1008300086E090E00E94F112182F092F6FE871E016
:100840000E9498138F2D9E2D612F702F43E554E049
:100850000E94871486E090E00E94F112182F092F61
:100860006EE971E00E9498138F2D9E2D612F702FDD
:1008700043E454E00E9487148F2D9E2D1F910F9109
:10088000FF90EF9008950F931F930BEA14E0C801B7
:100890000E945F03BC0164517040C8010E9489033B
:1008A0001F910F9108950F931F930BEA14E0C80155
:1008B0000E945F03BC016C5E7F4FC8010E948903E8
:1008C0001F910F9108958BEA94E00E94B703089559
:1008D0008BEA94E00E949E030895FC017283618379
:1008E000148213820895FC01838194810895CF932B
:1008F000DF93EC0184E195E06DEA71E00E949A0ECD
:100900008881882379F084E195E063EB71E00E94AF
:100910009A0E6B817C8184E195E04AE050E00E9470
:100920007B0E06C084E195E066EC71E00E94970FB3
:1009300081E090E0DF91CF910895FC0177FF02C044
:1009400060E070E0CB016F3F710519F014F08FEF9C
:1009500090E09483838381810E94D40A08950F9349
:100960001F938C01FC0114821382818160E070E08E
:100970000E94D40AF80110821F910F9108950F93DD
:100980001F938C018FEF90E0F80194838383818122
:100990006FEF70E00E94D40A81E0F80180831F911C
:1009A0000F9108950F931F938C01FC01818161E0E9
:1009B0000E94790BF8016381748181810E94D40ABD
:1009C0001F910F910895EF92FF920F931F938CE068
:1009D00090E00E94F112F82EE92E6BEC71E00E947B
:1009E000571386E090E00E94F112182F092F6FEC48
:1009F00071E00E9498138F2D9E2D612F702F45E678
:100A000055E00E94871486E090E00E94F112182FB2
:100A1000092F67ED71E00E9498138F2D9E2D612F95
:100A2000702F40E655E00E94871486E090E00E9417
:100A3000F112182F092F60EE71E00E9498138F2D8C
:100A40009E2D612F702F40E555E00E94871486E0AF
:100A500090E00E94F112182F092F64EF71E00E94BC
:100A600098138F2D9E2D612F702F40E455E00E942A
:100A700087148F2D9E2D1F910F91FF90EF90089559
:100A80000F931F9302EC14E0C8010E947304BC0191
:100A90006A507040C8010E949D041F910F910895F3
:100AA0000F931F9302EC14E0C8010E947304BC0171
:100AB000665F7F4FC8010E949D041F910F910895AA
:100AC00082EC94E00E94AF04089582EC94E00E94CE
:100AD000BF040895FC01718360835383428335838F
:100AE00024830895AF92BF92CF92DF92EF92FF924C
:100AF0000F931F937C0104E115E0C80168E072E0E8
:100B00000E949A0E98E1A92E92E0B92EC801B50173
:100B10000E949A0EF7014681578160857185C80150
:100B200022E030E00E94810F81E2C82E82E0D82EC0
:100B3000C801B6010E949A0EF7014285538564856B
:100B40007585C80122E030E00E94840FC8016BE285
:100B500072E00E949A0EC801B5010E949A0EF70138
:100B60004685578560897189C80122E030E00E947E
:100B7000810FC801B6010E949A0EF701428953897C
:100B800064897589C80122E030E00E94840F82E008
:100B900090E01F910F91FF90EF90DF90CF90BF906A
:100BA000AF900895CF92DF92EF92FF920F931F9331
:100BB000CF93DF938C01FC01808160E00E94060CE2
:100BC00081E08EBD0DB407FEFDCF8EB5C0E0D0E054
:100BD0000F2EF0E0CF2EF0E0DF2EF0E0EF2EF0E071
:100BE000FF2EF02D3AC01EBC0DB407FEFDCF8EB512
:100BF000680F711D022E02C0660F771F0A94E2F77C
:100C000028503040FFEF283F3F0769F7209721F039
:100C1000C130D105F1F40FC0F801C286D386E48655
:100C2000F58680E090E00E94181AF80166837783C9
:100C3000808791870EC0F801C28AD38AE48AF58A38
:100C400080E090E00E94181AF80166877787808B11
:100C5000918B2196C230D10529F060E070E028E048
:100C600030E0C1CFF801808161E00E94060CDF9185
:100C7000CF911F910F91FF90EF90DF90CF9008954B
:100C800085E994E00E94D20508950F931F938C018B
:100C9000FC01808161E00E94790BF801828161E0B2
:100CA0000E94790BF801848160E00E94790BF801C1
:100CB000828160E00E94060CF801828161E00E945E
:100CC000060CF801808161E00E94060C84E293E04A
:100CD00044E650E060E070E020E436E00E94521507
:100CE0001F910F910895FC017383628351834083A8
:100CF00008950F931F93CF93DF938C01EB0124E0B2
:100D0000CC0FDD1F2A95E1F7D063FC01828160E002
:100D10000E94060CDEBD0DB407FEFDCF8EB5CEBD24
:100D20000DB407FEFDCF8EB5F801828161E00E940F
:100D3000060C80E090E0DF91CF911F910F91089514
:100D40000F931F938C01FC01808161E00E94790B5D
:100D5000F801828161E00E94790BF801808161E0F5
:100D60000E94060CF801828161E00E94060C1F912E
:100D70000F910895FC01728361838FEF9FEF94833D
:100D80008383108208950F931F938C0184E195E073
:100D90006BE372E00E949A0EF8018081882329F0AB
:100DA00084E195E06BE472E004C084E195E06FE4D7
:100DB00072E00E94970F81E090E01F910F910895DB
:100DC000CF93DF93EC016B817C818FEF6F3F7807CE
:100DD00021F084E293E00E94B8148FEF9FEF9C8390
:100DE0008B83DF91CF910895CF93DF93EC014D83F7
:100DF0005E836F8378878B819C818F5F9F4F59F4CF
:100E000084E293E025E337E00E945215992787FD9D
:100E100090959C838B83DF91CF9108950F931F93BF
:100E20008C01FC01818161E00E94060C81E0F801E7
:100E300080831F910F9108950F931F938C01FC01E4
:100E4000818160E00E94060CF80110821F910F91D1
:100E50000895FC018081882321F0CF010E941C07A6
:100E60000895CF010E940E07089588E894E00E943B
:100E7000290708950F931F938C018FEF9FEFF801BF
:100E800094838383818161E00E94790BF8018181E1
:100E900060E00E94060C1F910F9108950F931F931D
:100EA0008C01FC01818160E00E94790BF801818155
:100EB00060E00E94790B1F910F910895EF92FF92CD
:100EC0000F931F938CE090E00E94F112F82EE92E10
:100ED00064E572E00E94571386E090E00E94F112F0
:100EE000182F092F6AE572E00E9498138F2D9E2D0E
:100EF000612F702F4DEE57E00E94871486E090E03E
:100F00000E94F112182F092F62E672E00E949813D6
:100F10008F2D9E2D612F702F4AED57E00E94871470
:100F200086E090E00E94F112182F092F6BE672E024
:100F30000E9498138F2D9E2D612F702F48EE57E041
:100F40000E94871486E090E00E94F112182F092F6A
:100F500069E772E00E9498138F2D9E2D612F702FEC
:100F60004FED57E00E94871486E090E00E94F11256
:100F7000182F092F63E972E00E9498138F2D9E2D80
:100F8000612F702F4DEC57E00E9487148F2D9E2DFE
:100F90001F910F91FF90EF9008950F931F9308E812
:100FA00014E0C8010E94E006C8010E941C071F91BE
:100FB0000F91089588E894E00E941C07089588E83E
:100FC00094E048EE53E060E070E00E94F40608957B
:100FD00088E894E00E942907089588E894E00E9438
:100FE0000E070895FC01718760878FEF9FEF93874D
:100FF000828780E090E0A0E8BEE384879587A6879B
:10100000B7870895EF92FF920F931F937C0104E13D
:1010100015E0C8016CEA72E00E949A0EC80163EB09
:1010200072E00E949A0EF7014081518162817381C2
:10103000C80122E030E00E94810FC8016CEB72E031
:101040000E949A0EF7014481558166817781C8011B
:1010500022E030E00E94840F81E090E01F910F9128
:10106000FF90EF9008950F931F938C01FC018085F2
:101070000E949C0AAA2797FDA095BA2FBC01CD011A
:101080000E941A1AF801608371838283938320E09F
:1010900030E040E85AE30E94CE1A20E030E040EA17
:1010A00050E40E94CE1AF801648375838683978387
:1010B00024853585468557850E947F19F80164830C
:1010C0007583868397831F910F91089582EB94E037
:1010D0000E9433080895CF93DF93EC016A857B85E6
:1010E0008FEF6F3F780721F084E293E00E94B814FD
:1010F0008FEF9FEF9B878A87DF91CF9108950F93A2
:101100001F938C01FC01808560E00E94790B84E2D2
:1011100093E044E650E060E070E026E638E00E94AC
:101120005215992787FD9095F801938782871F9123
:101130000F9108958130910509F043C06F5F7F4F93
:1011400009F04CC084E293E00E945B158EEC93E0C2
:101150000E945B1588E794E00E94AD138CE794E051
:1011600068EC72E00E94571388E894E066E070E053
:101170000E94BA0681E994E067E070E042E050E046
:101180000E94730685E994E068E070E045E050E075
:1011900024E030E00E946A058BEA94E063E070E0AE
:1011A0004AE050E00E94590382EB94E062E170E073
:1011B0000E94F20782EC94E069E070E00E946D0406
:1011C0000895892B59F46F5F7F4F41F482EB94E0CF
:1011D0000E946B0888E894E00E944E07089580E022
:1011E00090E06FEF7FEF0E949A08089581E090E011
:1011F0006FEF7FEF0E949A0808951F9384E195E0B6
:101200000E94610C182F181664F50E94AA0101971C
:1012100019F40E94AF0121C01436D1F015361CF428
:101220001136E9F410C0133741F01737C1F488E7DD
:1012300094E060E00E94EC1310C088E794E060E066
:101240000E94B3130AC088E794E00E943A1405C0D4
:1012500088E794E060E00E9425140E948F020E94BB
:10126000C0011F91089584E293E00E94FE148EEC69
:1012700093E00E94FE140E94FD0808950F931F93AF
:1012800084E195E060E072EC0E94390C83E00E94FA
:10129000F91280E00E94F4120E940A130E94E603F1
:1012A000BC010CE714E0C8010E9456140E94E3043C
:1012B000BC01C8010E9456140E945E07BC01C8010F
:1012C0000E94561488E794E0B8010E944C1488E804
:1012D00094E00E943A0781E994E00E94A00685E923
:1012E00094E00E9445068BEA94E00E94CF0382EBD3
:1012F00094E00E947F0882EC94E00E94D2040E9455
:10130000DC011F910F910895CF93DF930E94460A4D
:101310008AE295E00E945E100E943E09C0E0D0E0A3
:101320000E9433092097E1F30E940000F9CF1F9239
:101330000F920FB60F9211242F933F938F939F9389
:10134000AF93BF938091CB049091CC04A091CD0436
:10135000B091CE043091CF040196A11DB11D232F71
:101360002D5F2D3720F02D570196A11DB11D209323
:10137000CF048093CB049093CC04A093CD04B0937E
:10138000CE048091C7049091C804A091C904B09183
:10139000CA040196A11DB11D8093C7049093C8048F
:1013A000A093C904B093CA04BF91AF919F918F914C
:1013B0003F912F910F900FBE0F901F9018958FB7F0
:1013C000F8942091CB043091CC044091CD045091FD
:1013D000CE048FBFB901CA0108959B01AC017FB74C
:1013E000F8948091C7049091C804A091C904B09169
:1013F000CA0466B5A89B05C06F3F19F00196A11DF0
:10140000B11D7FBFBA2FA92F982F8827860F911D56
:10141000A11DB11D62E0880F991FAA1FBB1F6A950D
:10142000D1F7BC012DC0FFB7F8948091C70490910B
:10143000C804A091C904B091CA04E6B5A89B05C030
:10144000EF3F19F00196A11DB11DFFBFBA2FA92FC3
:10145000982F88278E0F911DA11DB11DE2E0880FE6
:10146000991FAA1FBB1FEA95D1F7861B970B885EB1
:101470009340C8F2215030404040504068517C4F6A
:10148000211531054105510571F60895789484B50B
:10149000826084BD84B5816084BD85B5826085BD70
:1014A00085B5816085BDEEE6F0E080818160808356
:1014B000E1E8F0E010828081826080838081816039
:1014C0008083E0E8F0E0808181608083E1E9F0E002
:1014D000808182608083808181608083E0E9F0E0A8
:1014E000808181608083E1ECF0E080818460808392
:1014F000808182608083808181608083E3ECF0E082
:10150000808181608083E0ECF0E080818260808374
:10151000E2ECF0E0808181608083EAE7F0E08081A6
:101520008460808380818260808380818160808309
:101530008081806880830895823108F08251E82F8D
:10154000F0E0E05DFE4FE49120917B008E2F8695C8
:101550008695869590E08170907035E0880F991F90
:101560003A95E1F72F7D282B20937B00E77080913F
:10157000E5028295880F880F807C8E2B80937C00FB
:1015800080917A00806480937A0080917A0086FD51
:10159000FCCF2091780040917900942F80E030E0DA
:1015A000282B392BC90108951F93CF93DF93182F50
:1015B000EB0161E00E94790B209709F48FC0CF3FC7
:1015C000D10509F48EC0E12FF0E0EE5EFE4F84916C
:1015D000883009F440C0893070F4823019F18330CA
:1015E00020F4813009F077C018C0833001F18430D5
:1015F00009F071C026C08B3009F44BC08C3030F438
:10160000893099F18A3009F066C039C08C3009F40C
:101610004DC08E3009F05FC051C084B5806884BD74
:10162000C7BD63C084B5806284BDC8BD5EC0809103
:101630008000806880938000D0938900C0938800E8
:1016400054C080918000806280938000D0938B0092
:10165000C0938A004AC08091900080688093900077
:10166000D0939900C093980040C080919000806210
:1016700080939000D0939B00C0939A0036C08091D5
:101680009000886080939000D0939D00C0939C0050
:101690002CC08091C00080688093C0008091C00001
:1016A0008F7B8093C000C093CF001FC08091C0008B
:1016B00080628093C000C093D00017C08091C200A8
:1016C00088608093C2008091C2008B7F8093C200AB
:1016D000C093D2000AC0C038D1051CF4812F60E04D
:1016E00002C0812F61E00E94060CDF91CF911F9113
:1016F0000895CF93DF93482F50E0CA018C509F4F3D
:10170000FC0134914A525F4FFA018491882369F1B8
:1017100090E0880F991FFC01E455FF4FA591B4910B
:10172000FC01E654FF4FC591D491662351F42FB7C5
:10173000F8948C91932F909589238C938881892399
:101740000BC0623061F42FB7F8948C91932F909571
:1017500089238C938881832B88832FBF06C09FB7F2
:10176000F8948C91832B8C939FBFDF91CF91089538
:10177000883071F1893068F4823031F1833020F49F
:10178000813009F042C01DC0833089F08430E9F512
:1017900012C08B3059F18C3028F48930E9F08A304E
:1017A000A1F51EC08C3031F18E3079F529C08091C1
:1017B00080008F7703C0809180008F7D80938000B0
:1017C000089584B58F7702C084B58F7D84BD089558
:1017D000809190008F7707C0809190008F7D03C02B
:1017E00080919000877F8093900008958091C00041
:1017F0008F7703C08091C0008F7D8093C0000895D3
:101800008091C200877F8093C2000895FF920F935A
:101810001F93F62E482F50E0CA018E5E9E4FFC01AA
:101820002491CA018C509F4FFC0114914A525F4F82
:10183000FA0104910023C9F0222319F0822F0E949B
:10184000B80BE02FF0E0EE0FFF1FE654FF4FA5911D
:10185000B4919FB7F894FF2021F48C9110958123C7
:1018600002C08C91812B8C939FBF1F910F91FF9091
:101870000895089520911005309111058091120569
:1018800090911305281B390B2F733070C9010895EF
:10189000209110053091110580911205909113054A
:1018A0002817390719F42FEF3FEF09C0E09112050F
:1018B000F0911305E053FB4F8081282F30E0C901E0
:1018C0000895209110053091110580911205909195
:1018D00013052817390719F42FEF3FEF13C0E091D4
:1018E0001205F0911305E053FB4F20818091120502
:1018F0009091130501968F739070909313058093C8
:10190000120530E0C90108951092170510921605CE
:1019100088EE93E0A0E0B0E080931805909319055D
:10192000A0931A05B0931B058AEF92E090931505DA
:101930008093140508950F931F93DF93CF930F9215
:10194000CDB7DEB78C0169838091ED02882369F001
:1019500083E0BE016F5F7F4F41E050E00E947C104A
:101960001816190614F49C0107C081E090E0F801F4
:101970009383828320E030E0C9010F90CF91DF9103
:101980001F910F91089583E00E9453100895CF9303
:10199000DF9312C082E00E94DE0F2FEF8F3F92078D
:1019A000C9F0E0911005F0911105E053FB4F8083E1
:1019B000D0931105C0931005C0911005D091110569
:1019C0002196CF73D0708091120590911305C8179E
:1019D000D90701F7DF91CF910895FC0180818E5FD7
:1019E000808380E86CE371E042E450E00E94F70FEE
:1019F0000895FC0181819081913A59F4813209F076
:101A00004CC080E066EE72E047E050E00E94F70FC5
:101A100042C0913209F041C0803239F486EE92E042
:101A200067E070E00E943B1036C0823209F035C09A
:101A300082818093ED028091E6029091E702A0916D
:101A4000E802B091E902805B9440A040B04019F5F3
:101A50008091ED0280FD12C087E797E7909301081F
:101A6000809300082BE088E190E00FB6F894A895E9
:101A7000809360000FBE209360000DC088E10FB618
:101A8000F89480936000109260000FBEA8951092A9
:101A900001081092000881E0089580E00895CF9237
:101AA000DF92EF92FF920F931F93CF93DF937C010E
:101AB0006B018A01C0E0D0E00FC0D6016D916D01CD
:101AC000D701ED91FC910190F081E02DC7010995BE
:101AD000C80FD91F015010400115110571F7CE0133
:101AE000DF91CF911F910F91FF90EF90DF90CF90FA
:101AF0000895EF92FF920F931F938C01DC01ED91FB
:101B0000FC910190F081E02D6DE009957C01D801F8
:101B1000ED91FC910190F081E02DC8016AE00995FA
:101B20009C012E0D3F1DC9011F910F91FF90EF9059
:101B30000895CF93DF93EC016115710519F420E04E
:101B400030E00FC0DB010D900020E9F71197A61BD4
:101B5000B70BE881F9810280F381E02DAD01099591
:101B60009C01C901DF91CF9108954F925F927F92BE
:101B70008F929F92AF92BF92CF92DF92EF92FF929D
:101B80000F931F93DF93CF93CDB7DEB7A1970FB617
:101B9000F894DEBF0FBECDBF2C01742ECB012230D6
:101BA00008F42AE019A231E2C32ED12CCC0EDD1E9E
:101BB000822E9924AA24BB24672D752FA501940198
:101BC0000E94541B79018A01C801B701A501940143
:101BD0000E94351B472D461B0894C108D1084A3086
:101BE00014F4405D01C0495CF6014083E114F10446
:101BF0000105110521F07E2C5F2DC801DDCFC2014A
:101C0000B6010E94990DA1960FB6F894DEBF0FBEE3
:101C1000CDBFCF91DF911F910F91FF90EF90DF909B
:101C2000CF90BF90AF909F908F907F905F904F909C
:101C30000895DC012115310541F4ED91FC910190ED
:101C4000F081E02D642F099508950E94B50D089547
:101C5000CF92DF92EF92FF920F931F93CF93DF9378
:101C6000EC016A017B012115310541F4E881F9811C
:101C70000190F081E02D642F09951FC02A303105B5
:101C8000D1F477FF17C0E881F9810190F081E02D50
:101C90006DE209958C0144275527BA014C195D095D
:101CA0006E097F09CE012AE00E94B50D9801280F28
:101CB000391F04C02AE00E94B50D9C01C901DF91C3
:101CC000CF911F910F91FF90EF90DF90CF900895EB
:101CD000EF92FF920F931F937B019A010027F7FC6D
:101CE0000095102FB801A7010E94280E1F910F9197
:101CF000FF90EF900895CF92DF92EF92FF920F93B3
:101D00001F936C017B019A010027F7FC0095102FAF
:101D1000B801A7010E94280E8C01C6010E94790D0E
:101D2000080F191FC8011F910F91FF90EF90DF90CE
:101D3000CF9008950E94990D08957F928F929F925F
:101D4000AF92BF92CF92DF92EF92FF920F931F93C9
:101D5000CF93DF934C017A018B01722ECB01BA0134
:101D6000A80197010E94311B882321F0C40163ED73
:101D700072E021C0C0E0D0E057016801E894D7F8D4
:101D8000C601B5012FEF3FEF4FE75FE70E94311B20
:101D9000882351F4C601B5012FEF3FEF4FE75FE70E
:101DA0000E947B19181614F0C1E0D0E0219739F099
:101DB000C40167ED72E00E94990DEC0193C0C80167
:101DC000B7012FEF3FEF4FE75FE40E94CA1A1816E2
:101DD00054F0C801B7012FEF3FEF4FE75FEC0E94CF
:101DE0007B19882324F4C4016BED72E0E4CFC801B1
:101DF000B70120E030E040E050E00E947B1987FD11
:101E000003C0C0E0D0E00EC0D401ED91FC91019080
:101E1000F081E02DC4016DE20995EC0117FB1095EE
:101E200017F9109520E030E040E05FE3DD240BC0BF
:101E3000CA01B90120E030E040E251E40E947F197C
:101E40009B01AC01D394D71498F3C801B7010E9449
:101E500017195B016C010E94EC197B018C01C40114
:101E6000B801A7012AE030E00E94190EC80FD91F5F
:101E7000772039F0C4016FED72E00E94990DC80F10
:101E8000D91FC801B7010E94181A9B01AC01C601F5
:101E9000B5010E94161924C020E030E040E251E470
:101EA0000E94CE1A7B018C010E94E7195B016C0134
:101EB000CC24B7FCC094DC2CC401B601A5012AE0F7
:101EC00030E00E94280EC80FD91FC601B5010E943C
:101ED0001A1A9B01AC01C801B7010E9416197A9425
:101EE0007720D1F6CE01DF91CF911F910F91FF9016
:101EF000EF90DF90CF90BF90AF909F908F907F90AA
:101F000008950E949D0E0895EF92FF920F931F93E4
:101F10007C010E949D0E8C01C7010E94790D080F63
:101F2000191FC8011F910F91FF90EF900895EF9234
:101F3000FF920F931F937C010E94990D8C01C701A2
:101F40000E94790D080F191FC8011F910F91FF9072
:101F5000EF900895282F809124058823C1F057FF22
:101F60001AC015C02898909323058091F1008193A1
:101F7000E217F307B9F74115510539F08091F200E6
:101F8000882319F48BE68093E800AFBF02C04FEFBF
:101F90005FEFCA010895AFB7F89427702093E90066
:101FA0008091F200282F30E0241735070CF4A901A6
:101FB000FB019B01240F311D94E6DACFDF93CF9311
:101FC0000F92CDB7DEB7BE016F5F7F4F41E050E0AB
:101FD0000E94AA0F019719F02FEF3FEF03C08981EC
:101FE000282F30E0C9010F90CF91DF910895FF9223
:101FF0000F931F93F82E142F052F40912705509112
:102000002805212F302FC901DC01FB016EEF29C00B
:10201000F7FE02C0949101C0908120912505309176
:10202000260524173507ACF48091E8008570E1F3AC
:102030008091E80082FF03C02FEF3FEF17C090931D
:10204000F100C90101968F739070892B11F4609390
:10205000E8002F5F3F4F3093260520932505119709
:1020600031961097A9F6812F902F9C01C9011F91DD
:102070000F91FF9008959C018091E80082FFFCCFB2
:10208000F901260F311D03C08091F1008193E21701
:10209000F307D1F7289884E6809323058BEF80938C
:1020A000E800CB0108958093E9008091F200882335
:1020B00019F08AE38093E8000895089510922405AA
:1020C00081E08093D70080EA8093D80082E189BDC7
:1020D00009B400FEFDCF61E070E080E090E00E9476
:1020E000ED0980E98093D8008CE08093E2001092A3
:1020F000E000559A209A08955F926F927F928F9296
:102100009F92AF92BF92CF92DF92EF92FF920F9386
:102110001F93CF93DF93E82E842E752E8091240594
:10212000882371F18B01242F352FC901EC017AEF3F
:10213000F72E67E0962E9E2050E4552E8E2D90E0CF
:1021400040E2A42EB12CA822B9223AE3632E20E467
:10215000C22ED12CC822D92258C09FB7F894909291
:10216000E9008091E80085FD02C020E004C0809174
:10217000F200252D281B9FBF222361F4FA9419F445
:102180002FEF3FEF4DC061E070E080E090E00E94F3
:10219000ED093BC0822F90E0C817D9070CF42C2F13
:1021A000C21BD1094FB7F8949092E900A114B10471
:1021B00021F406C01092F10021502223D9F719C052
:1021C000E7FC03C0F801922F10C0C801322F06C0EF
:1021D000FC010196E491E093F10031503323C1F703
:1021E00006C081918093F10091509923D1F7020F9D
:1021F000111D8091E80085FF05C0209729F4C114C6
:10220000D10411F06092E8004FBF209709F0A5CFEC
:102210005D9884E680932205282D372DC9019C0105
:10222000C901DF91CF911F910F91FF90EF90DF9047
:10223000CF90BF90AF909F908F907F906F905F9066
:1022400008951F920F920FB60F9211242F933F9370
:102250004F935F936F937F938F939F93AF93BF93AE
:10226000EF93FF938091E1001092E100982F83FF9C
:102270000FC01092E90081E08093EB001092EC0017
:1022800082E38093ED001092240588E08093F000B3
:1022900092FF34C083E08093E9008091F2008823AC
:1022A00019F08AE38093E8008FB7F89492E0909356
:1022B000E9009091F2008FBF992321F084E195E02D
:1022C0000E94C70C80912205882351F0809122053D
:1022D00081508093220580912205882309F45D9A1C
:1022E00080912305882351F08091230581508093AC
:1022F000230580912305882309F4289AFF91EF9103
:10230000BF91AF919F918F917F916F915F914F910D
:102310003F912F910F900FBE0F901F9018950F9324
:102320001F93DF93CF930F92CDB7DEB719828E0143
:102330000F5F1F4FC8010E94ED0CC8010E94BE181C
:10234000898190E00F90CF91DF911F910F910895B7
:102350001F920F920FB60F921124EF92FF921F93CC
:102360002F933F934F935F936F937F938F939F939D
:10237000AF93BF93EF93FF93DF93CF93CDB7DEB7C8
:102380006197DEBFCDBF1092E9008091E80083FF26
:102390000FC1FE0131969E01275F3F4F03C0809120
:1023A000F1008193E217F307D1F7289884E6809330
:1023B000230582EF8093E800998197FF05C0809103
:1023C000E80080FFFCCF03C08EEF8093E800292F48
:1023D00030E0C90180769070892B09F0C2C08A81F3
:1023E000882329F41092F1001092F100D6C08130B8
:1023F00009F4D3C0833009F4D0C0853049F480910A
:10240000E80080FFFCCF8B8180688093E300C5C02B
:10241000863009F07CC01C81EF80F8841230C1F551
:102420001092E900109226051092250510922805B9
:10243000109227050E948F1199E0FE013996DF0165
:10244000292F1D922A95E9F799871A8791E09E878F
:1024500090E8988B9AEF998B20912505309126056D
:10246000275F3F4F3C872B878D871092E9001092A2
:10247000260510922505F0922805E092270580E0B8
:10248000BF0149E050E00E94F70F0E948F1185C004
:102490001092E9001092260510922505F092280569
:1024A000E0922705123241F482E290E00E94B618D1
:1024B000892B09F476C071C0113079F488E0E816F0
:1024C000F10419F481E0809329058091290588237E
:1024D00009F06BC0ECEBF1E013C0133009F061C000
:1024E0008B81882319F4EEE7F1E00AC0823019F4F9
:1024F000E2E8F1E005C0813009F053C0E4EAF1E020
:10250000449180E8BF0150E00E94F70F46C0873039
:1025100009F447C0883021F481E08093F1003DC088
:102520008930D9F523703070232BD9F5E1EEF1E035
:1025300091E031E026E39093E9003093EB00849141
:102540008093EC002093ED009F5F3196953099F7D2
:102550008EE78093EA001092EA008B818093240535
:102560001CC08F8198851092E90010922605109268
:10257000250590932805809327058D81882329F4CC
:10258000CE0101960E94F90C06C0823051F4CE01B2
:1025900001960E948717882321F08EEF8093E80030
:1025A00007C081E28093EB0003C0EEECF1E0A8CF1E
:1025B0006196DEBFCDBFCF91DF91FF91EF91BF91CB
:1025C000AF919F918F917F916F915F914F913F91CB
:1025D0002F911F91FF90EF900F900FBE0F901F90C3
:1025E00018950E94711508959CB5937F982B9CBDFA
:1025F00008952CB5382F33702C7F322B3CBD2DB570
:1026000090E0959587959595879581702E7F822B83
:102610008DBD089581E161E00E94060C81E161E0D9
:102620000E94790B8CB580618CBD8CB580648CBDAB
:102630008FE061E00E94790B80E161E00E94790BFC
:102640000895DF93CF9300D0CDB7DEB72091380542
:1026500030913905CE0101962115310529F48C53AD
:1026600095409A83898318C0AC01421B530BE091BB
:102670003A05F0913B0520E030E008C0808191816F
:102680000296280F391F0280F381E02D3097B1F7B1
:10269000240F351F3A83298389819A810F900F90E7
:1026A000CF91DF910895FC01828193810895FC010F
:1026B0007383628382E193E0918380831582148225
:1026C0001782168211861086128613860895FC01E1
:1026D000838590E0880F991F0680F781E02DE80F31
:1026E000F91FA081B181109719F420E030E009C0F2
:1026F000ED91FC9111970190F081E02DCD010995AC
:102700009C01C9010895089570E0660F771FDC01F0
:102710001696ED91FC911797E60FF71F8081918136
:102720000895FC01848195810895FC0182850895B6
:10273000FC01738362838CE093E091838083158234
:1027400014820895DC011496ED91FC911597309751
:1027500009F0099580E090E00895FC011182108253
:10276000138212820895FC01A281B3811B964C91C1
:102770001B97242F30E01A968C911A9790E00197BE
:1027800028173907B1F0842F8F5F1B968C931B9706
:1027900090E0880F991F1696ED91FC911797E80F1E
:1027A000F91F8081918115969C938E93149781E0F7
:1027B0000895662311F480E008951B961C921B97E0
:1027C0001696ED91FC9117978081918115969C93B7
:1027D0008E93149781E00895FC01A281B3811B962A
:1027E0008C911B978823A9F081501B968C931B9783
:1027F00090E0880F991F1696ED91FC911797E80FBE
:10280000F91F8081918115969C938E93149781E096
:102810000895662311F480E008951A968C911A9712
:1028200081501B968C931B9790E0880F991F1696EA
:10283000ED91FC911797E80FF91F80819181159612
:102840009C938E93149781E008951F93CF93DF9309
:10285000EC01162F8A819B810E946713009721F457
:10286000112321F0888199819B838A83DF91CF9105
:102870001F910895FC01A281B38180819181A817E5
:10288000B90711F480E0089518968D919C911997DD
:102890009383828381E00895FC0171836083738355
:1028A00062830895FC018281938108950F931F93A1
:1028B000CF93DF93EC018B016A8570E06F5F7F4FF0
:1028C000660F771F8E819F810E94A6169F838E833D
:1028D000009719F460E070E014C0F801D187C08758
:1028E000EA85F0E0EE0FFF1FE80FF91F0083118368
:1028F0008A85882311F40C831D838A858F5F8A87DC
:10290000B801CB01DF91CF911F910F910895EF9204
:10291000FF920F931F93CF93DF93EC018B017A010A
:102920006A8570E06F5F7F4F660F771F8E819F8192
:102930000E94A6169F838E83009799F0EA85F0E0A7
:10294000EE0FFF1FE80FF91F00831183F801F582D6
:10295000E4828A85882311F40C831D838A858F5F26
:102960008A87DF91CF911F910F91FF90EF9008958B
:102970009C016A3078F4862F992787FD9095FC0199
:1029800044E0EE0FFF1F4A95E1F7E80FF91FE20F51
:10299000F31F10820895AF92BF92CF92DF92EF9211
:1029A000FF920F931F93CF93DF935C016A017B012A
:1029B0008C01C0E0D0E0F8018081882371F0CE0165
:1029C00054E0880F991F5A95E1F78C0F9D1F8A0DCF
:1029D0009B1DB701A6010E94CD1821960F5E1F4FC7
:1029E000CA30D10541F7DF91CF911F910F91FF9030
:1029F000EF90DF90CF90BF90AF9008950F931F930B
:102A00008C010E94DF09AB01BC01C8010E94CB14FC
:102A10001F910F910895FF920F931F93CF93DF9310
:102A2000DC01E9019801FC01FF248081882341F049
:102A3000F39471968AE0F816C1F7FF24FA9422C045
:102A40008F2D992787FD90958C01E4E0000F111FD1
:102A5000EA95E1F7080F191F0A0F1B1F81E0F80123
:102A60008083418352836383748336832583D28733
:102A7000C1870E94DF09F80163877487858796877D
:102A8000108A17868F2DDF91CF911F910F91FF90A4
:102A900008950F931F9301E010E00E940B151F9102
:102AA0000F9108950F931F930FEF1FEF0E940B15C7
:102AB0001F910F9108950F931F93CF93DF93EC0114
:102AC00000E010E0CE01800F911F0E94CA180F5E37
:102AD0001F4F0A3A1105B1F7DF91CF911F910F9166
:102AE00008950F931F93CF93DF93BC01823091051C
:102AF00010F462E070E0E0913A05F0913B05A0E04F
:102B0000B0E040E050E024C08081918186179707B3
:102B1000D0F08617970771F482819381109729F07E
:102B200013969C938E9312972CC090933B058093A1
:102B30003A0527C04115510519F08417950718F477
:102B4000EF018D01AC01DF01828193819C01F901CC
:102B50003097D1F641155105F9F0CA01861B970B44
:102B60008430910580F48A819B810115110521F043
:102B7000F8019383828304C090933B0580933A05C8
:102B8000FE01329645C0FE01E80FF91F6193719373
:102B90000297998388833CC08091380590913905CC
:102BA000892B41F48091F0029091F10290933905C4
:102BB000809338054091F2025091F302411551057E
:102BC00041F44DB75EB78091EE029091EF02481B41
:102BD000590B209138053091390524173507B0F489
:102BE000CA01821B930B8617970780F0AB014E5FDB
:102BF0005F4F8417950750F0420F531F50933905CC
:102C000040933805F9016193719302C0E0E0F0E070
:102C1000CF01DF91CF911F910F910895CF93DF9353
:102C20009C01009709F48FC0EC0122971B821A8245
:102C300060913A0570913B056115710581F48881B9
:102C40009981820F931F20913805309139052817FB
:102C5000390739F5D0933905C093380574C0DB01C5
:102C600040E050E0AC17BD0708F1BB83AA83FE012A
:102C700021913191E20FF31FAE17BF0779F48D91C7
:102C80009C911197280F391F2E5F3F4F398328835E
:102C900012968D919C9113979B838A8341155105C0
:102CA00071F4D0933B05C0933A054DC012968D91B7
:102CB0009C911397AD01009711F0DC01D3CFDA019D
:102CC0001396DC93CE931297FA0121913191E20F82
:102CD000F31FCE17DF0769F488819981280F391F08
:102CE0002E5F3F4FFA01318320838A819B8193833A
:102CF0008283E0E0F0E0DB0112968D919C911397C6
:102D0000009719F0BC01FD01F6CFAB014E5F5F4F9C
:102D1000DB018D919C91840F951F20913805309196
:102D200039052817390779F4309729F410923B05B3
:102D300010923A0502C013821282425050405093C2
:102D4000390540933805DF91CF9108956F927F92B6
:102D50008F929F92AF92BF92CF92DF92EF92FF92AB
:102D60000F931F93CF93DF938C01009729F4CB012E
:102D70000E9471158C01BBC08EEFE82E8FEFF82EEC
:102D8000E00EF11E4801860E971E8E149F0408F473
:102D9000ACC0D7014D915C91119746175707B8F019
:102DA0004530510508F4A3C0CA0104978617970758
:102DB00008F49DC042505040461B570BF40141930C
:102DC00051936D937C93CF010E940E1690C05B01CE
:102DD000A41AB50A3801640E751EA0913A05B09187
:102DE0003B05CC24DD24E0E0F0E047C0A615B705A4
:102DF000A9F5CD91DC911197CE0102968A159B051C
:102E000068F1CE018A199B09029612962C911297AD
:102E100013963C91059758F0F40122833383CA1925
:102E2000DB09D183C083D7016D937C9309C04E5FCA
:102E30005F4F4C0F5D1FF70151834083C901FC01B7
:102E4000C114D10431F0D6011396FC93EE9312977E
:102E50004EC0F0933B05E0933A0549C08D919C919B
:102E60001197E817F90708F4FC016D0112968C918F
:102E7000129713969C919C01D901109709F0B6CF37
:102E8000809138059091390586159705E9F4E61784
:102E9000F707D0F42091F2023091F30221153105A9
:102EA00041F42DB73EB78091EE029091EF02281BBE
:102EB000390B82169306C8F4909239058092380532
:102EC000F7017183608313C0CB010E947115EC017F
:102ED000009759F0D7014D915C91B8010E94A10172
:102EE000C8010E940E168E0102C000E010E0C80169
:102EF000DF91CF911F910F91FF90EF90DF90CF90D6
:102F0000BF90AF909F908F907F906F900895FC013D
:102F100091818081813A31F4913089F080E0933061
:102F200089F40DC0813269F49B3021F48281809351
:102F3000F40205C09A3029F482818093F50281E081
:102F4000089580E00895EF92FF920F931F938C01F4
:102F5000E62EDC01ED91FC910480F581E02D0995D0
:102F6000F82ED801ED91FC910680F781E02DC80183
:102F70006E2D09958F2D90E01F910F91FF90EF908E
:102F8000089510922B0510922F0510922E0588E1BE
:102F900093E090932D0580932C050895EF92FF9276
:102FA0000F931F93DF93CF930F92CDB7DEB7898333
:102FB0008B017A0184E0BE016F5F7F4F41E050E0FA
:102FC0000E947C1084E4B801A7010E947C100F903D
:102FD000CF91DF911F910F91FF90EF90089582E0C4
:102FE00048E050E00E94CE170895FC011682178237
:102FF000108611861286138614823496BF010E94B1
:10300000EF170895DC01683810F0685829C0E62FE2
:10301000F0E067FF13C0E058F04081E090E002C0AC
:10302000880F991FEA95E2F7809514962C911497D2
:10303000282314962C93149760E012C0ED59FD4F8D
:103040006491662319F420E030E01DC067FF08C0DA
:1030500014968C9114978D7F14968C9314976F7798
:10306000FD0190E0662321F08681861709F416821F
:103070009F5F31969630B1F7CD011496BD010E9445
:10308000EF1721E030E0C9010895CF93DF93DC0111
:10309000683810F0685825C0E62FF0E067FF12C0CE
:1030A000E058F04081E090E002C0880F991FEA9557
:1030B000E2F714962C911497282B14962C931497BE
:1030C00060E00FC0ED59FD4F64916623D9F167FFB1
:1030D00008C014968C911497826014968C93149760
:1030E0006F7716968C9116978617A9F117968C9183
:1030F0001797861781F118968C911897861759F1B2
:1031000019968C911997861731F11A968C911A9706
:10311000861709F11B968C911B978617E1F0ED013C
:10312000E0E0F0E09E2F8E81882321F4EA0FFB1F60
:10313000668306C09F5F31962196E630F10591F7D0
:10314000963049F481E090E013969C938E93129709
:1031500020E030E007C0CD011496BD010E94EF17BA
:1031600021E030E0C901DF91CF91089580E865EE5C
:1031700071E045E650E00E94F70F0895FC01808160
:103180008F5F808380E86AE472E049E150E00E944A
:10319000F70F0895FC0110820895EF92FF920F93AC
:1031A0001F93CF93DF93EC017A018B018B859C8574
:1031B000AD85BE859A01AB01281B390B4A0B5B0B11
:1031C00089819A81AB81BC81281739074A075B073F
:1031D000E0F08881813019F0823071F404C0E98513
:1031E000FA85099509C060E08885882309F461E0C3
:1031F00068878F810E94060CEB86FC860D871E87F0
:103200008F8598890196988B8F872D813E8137FD18
:1032100006C08F859889821793070CF01882DF917A
:10322000CF911F910F91FF90EF9008955058BB27B9
:10323000AA270ED075C166D130F06BD120F031F4E1
:103240009F3F11F41EF45BC10EF4E095E7FB51C102
:10325000E92F77D180F3BA176207730784079507C0
:1032600018F071F49EF58FC10EF4E0950B2EBA2F75
:10327000A02D0B01B90190010C01CA01A00111247C
:10328000FF27591B99F0593F50F4503E68F11A1628
:10329000F040A22F232F342F4427585FF3CF4695B9
:1032A00037952795A795F0405395C9F77EF41F16DB
:1032B000BA0B620B730B840BBAF09150A1F0FF0FA5
:1032C000BB1F661F771F881FC2F70EC0BA0F621F91
:1032D000731F841F48F4879577956795B795F79581
:1032E0009E3F08F0B3CF9395880F08F09927EE0F13
:1032F000979587950895D9D008F481E008950CD06A
:103300000FC107D140F0FED030F021F45F3F19F03B
:10331000F0C0511139C1F3C014D198F39923C9F306
:103320005523B1F3951B550BBB27AA2762177307CB
:10333000840738F09F5F5F4F220F331F441FAA1F7F
:10334000A9F333D00E2E3AF0E0E830D0915050403F
:10335000E695001CCAF729D0FE2F27D0660F771FED
:10336000881FBB1F261737074807AB07B0E809F0CF
:10337000BB0B802DBF01FF2793585F4F2AF09E3F64
:10338000510568F0B6C000C15F3FECF3983EDCF336
:10339000869577956795B795F7959F5FC9F7880FDD
:1033A000911D9695879597F90895E1E0660F771F2F
:1033B000881FBB1F621773078407BA0720F0621BC0
:1033C000730B840BBA0BEE1F88F7E095089504D0B9
:1033D0006894B111D9C00895BCD088F09F5790F07F
:1033E000B92F9927B751A0F0D1F0660F771F881F2A
:1033F000991F1AF0BA95C9F712C0B13081F0C3D045
:10340000B1E00895C0C0672F782F8827B85F39F0E2
:10341000B93FCCF3869577956795B395D9F73EF488
:1034200090958095709561957F4F8F4F9F4F089530
:10343000E89409C097FB3EF490958095709561954E
:103440007F4F8F4F9F4F9923A9F0F92F96E9BB2704
:103450009395F695879577956795B795F111F8CF80
:10346000FAF4BB0F11F460FF1BC06F5F7F4F8F4FEB
:103470009F4F16C0882311F096E911C0772321F0E1
:103480009EE8872F762F05C0662371F096E8862F79
:1034900070E060E02AF09A95660F771F881FDAF7D0
:1034A000880F9695879597F90895990F0008550FFD
:1034B000AA0BE0E8FEEF16161706E807F907C0F0BA
:1034C00012161306E407F50798F0621B730B840BC2
:1034D000950B39F40A2661F0232B242B252B21F49C
:1034E00008950A2609F4A140A6958FEF811D811D3C
:1034F000089597F99F6780E870E060E008959FEF76
:1035000080EC089500240A9416161706180609067A
:10351000089500240A941216130614060506089549
:10352000092E0394000C11F4882352F0BB0F40F4D1
:10353000BF2B11F460FF04C06F5F7F4F8F4F9F4F11
:10354000089557FD9058440F551F59F05F3F71F093
:103550004795880F97FB991F61F09F3F79F08795FA
:103560000895121613061406551FF2CF4695F1DF83
:1035700008C0161617061806991FF1CF8695710513
:10358000610508940895E894BB2766277727CB0147
:1035900097F908958ADF08F48FEF08950BD0C0CF14
:1035A000B1DF28F0B6DF18F0952309F0A2CFA7CF3E
:1035B0001124EACFC6DFA0F3959FD1F3950F50E019
:1035C000551F629FF001729FBB27F00DB11D639FD5
:1035D000AA27F00DB11DAA1F649F6627B00DA11D7B
:1035E000661F829F2227B00DA11D621F739FB00D21
:1035F000A11D621F839FA00D611D221F749F332791
:10360000A00D611D231F849F600D211D822F762F29
:103610006A2F11249F5750408AF0E1F088234AF026
:10362000EE0FFF1FBB1F661F771F881F9150504072
:10363000A9F79E3F510570F05CCFA6CF5F3FECF33A
:10364000983EDCF3869577956795B795F795E7955E
:103650009F5FC1F7FE2B880F911D9695879597F96F
:10366000089523DF880B990B0895629FD001739F03
:10367000F001829FE00DF11D649FE00DF11D929F0E
:10368000F00D839FF00D749FF00D659FF00D99274D
:10369000729FB00DE11DF91F639FB00DE11DF91F71
:1036A000BD01CF0111240895A1E21A2EAA1BBB1B54
:1036B000FD010DC0AA1FBB1FEE1FFF1FA217B307FE
:1036C000E407F50720F0A21BB30BE40BF50B661F14
:1036D000771F881F991F1A9469F7609570958095D8
:1036E00090959B01AC01BD01CF010895EE0FFF1F26
:1036F0000590F491E02D099412E0CCEED2E004C0E4
:10370000FE010E94781B2296CE3ED107C9F7F8949D
:02371000FFCFE9
:10371200002A2A2A2A2A2A2A2A2A2A2A2A2A2A2A31
:1037220000773A20757000733A20646F776E0061FB
:103732003A2070726576696F757300643A2073651A
:103742006C656374002D2D2D2D2D2B2000202B2D2B
:103752002D2D2D2D002A2000202000467265652087
:103762006D656D6F7279203D2000206279746573FA
:103772000046616E3A20004F6E202D205370656521
:1037820064203D20004F6666200046616E0054753D
:10379200726E206F6E005475726E206F66660049FD
:1037A2006E6372656173652053706565640044657C
:1037B200637265617365205370656564004C4544AE
:1037C2003A20004F6E202D204272696768746E6540
:1037D2007373203D20004F666620004C4544005420
:1037E20075726E206F6E005475726E206F66660081
:1037F200496E637265617365204272696768746EAF
:103802006573730044656372656173652042726912
:103812006768746E65737300414443204368616E48
:103822006E656C20303A200056616C7565203D2033
:103832000020566F6C7473203D20004144432043A6
:1038420068616E6E656C20313A200052656C617958
:103852003A205374617465203D2000206F6E002071
:103862006F66660052656C6179005475726E206FE6
:103872006E005475726E206F666600546F67676CD7
:1038820065206F6E2F6F66660053746172742063D9
:103892006F6E74696E756F757320746F67676C698C
:1038A2006E670053746F7020636F6E74696E756F0C
:1038B200757320746F67676C696E67005641444A7E
:1038C2003A200056616C7565203D200020566F6CD1
:1038D20074616765203D200042656E6368427564CD
:1038E2004545006E616E00696E66006F7666002E59
:1038F20000FFFFFFFF0100E1000000000000800068
:103902003C0500000101000000009B0C4F0D3A0C29
:10391200610C480CC30CC70C00000000A21300008D
:103922000000831300000000A3174F0D4518021872
:02393200F51787
:00000001FF
