:100000000C9464000C948C000C948C000C948C0068
:100010000C948C000C948C000C948C000C948C0030
:100020000C948C000C948C000C948C000C948C0020
:100030000C948C000C948C000C948C000C948C0010
:100040000C94F9080C948C000C94A00A0C94EE0A01
:100050000C948C000C948C000C948C000C948C00F0
:100060000C948C000C948C000000000024002700ED
:100070002A0000000000250028002B0000000000DE
:1000800023002600290004040404040404040202DA
:100090000202020203030303030301020408102007
:1000A0004080010204081020010204081020000012
:1000B0000007000201000003040600000000000029
:1000C00000005A085A0C530811241FBECFEFD8E085
:1000D000DEBFCDBF13E0A0E0B1E0E0E0FDE202C092
:1000E00005900D92A031B107D9F715E0A0E1B3E07A
:1000F00001C01D92A837B107E1F710E0C6ECD0E0CF
:1001000004C02297FE010E946F16C23CD107C9F7B6
:100110000E94EA080C9473160C940000FB01DC01A9
:1001200002C001900D9241505040D8F7089580913F
:10013000EB029091EC0208958CEB93E06091E90260
:100140000E948D108FEF9FEF9093EA028093E90257
:100150001092EC021092EB0208950F931F930CEB98
:1001600013E0C8016091E9020E948D10C8014CEDB6
:1001700055E060E070E029EC30E00E941E11992704
:1001800087FD90959093EA028093E9021F910F9169
:10019000089581E090E09093EC028093EB028CEB69
:1001A00093E048EC50E060E070E02AEE31E00E941D
:1001B0002711992787FD90959093EA028093E90291
:1001C00008950FC082E595E060E071E00E94E50EC1
:1001D00080911003909111030196909311038093E5
:1001E0001003809110039091110347975CF30895D9
:1001F000CF93DF931092110310921003C0E0D0E070
:1002000082E595E060E071E00E94E50E2196C7313D
:10021000D105B1F7DF91CF910895EF92FF920F933F
:100220001F9302E515E081E0E82E81E0F82EC80179
:10023000B7010E94E50E8091100390911103019681
:100240009093110380931003C80161E171E00E9453
:10025000E50E809110039091110301969093110384
:1002600080931003C80167E171E00E94E50E809160
:100270001003909111030196909311038093100342
:10028000C8016FE171E00E94E50E8091100390912A
:10029000110301969093110380931003C8016BE240
:1002A00071E00E94E50E8091100390911103019678
:1002B0009093110380931003C801B7010E94E50ECB
:1002C00080911003909111030196909311038093F4
:1002D0001003C80160E071E00E94E50E80911003F8
:1002E00090911103019690931103809310031F9135
:1002F0000F91FF90EF900895CF92DF92EF92FF92CF
:100300000F931F93CF93DF930E949C000E94F800ED
:100310000E940D0186E694E00E9427107C0182E590
:1003200095E065E371E00E94E80DC7010E94280F87
:10033000BC0182E595E00E94E80D82E595E06DE361
:1003400071E00E94E50E80911003909111030196D7
:100350009093110380931003C7010E94660F6C01F4
:10036000C0E0D0E025C0C7016C2F0E94590F8C015E
:10037000C816D90629F482E595E065E471E004C069
:1003800082E595E068E471E00E94E80DC8010E94F2
:10039000280FBC0182E595E00E94E50E80911003D4
:1003A000909111030196909311038093100321966D
:1003B000C7010E946A0F90E0C817D907A4F20E94F3
:1003C000E100DF91CF911F910F91FF90EF90DF90AF
:1003D000CF9008950F931F930E94F800009110038F
:1003E0001091110386E794E00E942706080F191F59
:1003F000109311030093100385EA94E00E943302E6
:10040000080F191F10931103009310038CEB94E055
:100410000E944703080F191F109311030093100344
:1004200083E894E00E947304080F191F10931103CE
:10043000009310038CEA94E00E946607080F191FCE
:1004400010931103009310030E94E1001F910F917C
:100450000895FC0172836183548343830895FC01F2
:10046000858196810895CF93DF93EC0182E595E035
:100470006BE471E00E94E80D8881882379F082E5C1
:1004800095E061E571E00E94E80D6D817E8182E575
:1004900095E04AE050E00E94C90D06C082E595E073
:1004A0006FE571E00E94E50E81E090E0DF91CF9171
:1004B0000895FC01CB016F3F710514F08EEF90E0C1
:1004C00097FF02C080E090E0968385836EEF70E036
:1004D000681B790B83810E94AC0908950F931F93C9
:1004E0008C018FE794E06AE070E00E94DD05F8017E
:1004F000818161E00E944B0AC8016EEF70E00E94AA
:10050000590281E0F80180831F910F9108950F93A4
:100510001F938C018FE794E060E070E00E94DD059E
:10052000F801818160E00E944B0AF801838160E05C
:100530000E940C0AF80110821F910F9108950F93E9
:100540001F938C01FC01818161E00E940C0AF8017B
:10055000818160E00E944B0AF801838161E00E9482
:100560000C0AF80110821F910F910895EF92FF92EB
:100570000F931F938CE090E00E94F80EF82EE92E66
:1005800064E671E00E942C0F86E090E00E94F80E75
:10059000182F092F68E671E00E946D0F8F2D9E2D98
:1005A000612F702F48E353E00E945C1086E090E0DA
:1005B0000E94F80E182F092F60E771E00E946D0F5E
:1005C0008F2D9E2D612F702F43E353E00E945C100E
:1005D00086E090E00E94F80E182F092F69E771E07D
:1005E0000E946D0F8F2D9E2D612F702F43E253E0DF
:1005F0000E945C1086E090E00E94F80E182F092FF0
:1006000068E871E00E946D0F8F2D9E2D612F702F75
:1006100043E153E00E945C108F2D9E2D1F910F919E
:10062000FF90EF9008950F931F9305EA14E0C8011F
:100630000E942F02BC0164517040C8010E945902FF
:100640001F910F9108950F931F9305EA14E0C801BD
:100650000E942F02BC016C5E7F4FC8010E945902AC
:100660001F910F91089585EA94E00E9487020895F2
:1006700085EA94E00E946E020895FC017283618312
:10068000148213820895FC01838194810895CF938D
:10069000DF93EC0182E595E067E971E00E94E80DE7
:1006A0008881882379F082E595E06DE971E00E9408
:1006B000E80D6B817C8182E595E04AE050E00E9484
:1006C000C90D06C082E595E060EB71E00E94E50E81
:1006D00081E090E0DF91CF910895FC0177FF02C0A7
:1006E00060E070E0CB016F3F710519F014F08FEFFF
:1006F00090E09483838381810E94AC0908950F93D5
:100700001F938C01FC0114821382818160E070E0F0
:100710000E94AC09F80110821F910F9108950F9368
:100720001F938C018FEF90E0F80194838383818184
:100730006FEF70E00E94AC0981E0F80180831F91A7
:100740000F9108950F931F938C01FC01818161E04B
:100750000E940C0AF8016381748181810E94AC09B6
:100760001F910F910895EF92FF920F931F938CE0CA
:1007700090E00E94F80EF82EE92E65EB71E00E94E1
:100780002C0F86E090E00E94F80E182F092F69EBDD
:1007900071E00E946D0F8F2D9E2D612F702F45E30C
:1007A00054E00E945C1086E090E00E94F80E182F42
:1007B000092F61EC71E00E946D0F8F2D9E2D612F2E
:1007C000702F40E354E00E945C1086E090E00E94AD
:1007D000F80E182F092F6AEC71E00E946D0F8F2D13
:1007E0009E2D612F702F40E254E00E945C1086E045
:1007F00090E00E94F80E182F092F6EED71E00E9414
:100800006D0F8F2D9E2D612F702F40E154E00E94BF
:100810005C108F2D9E2D1F910F91FF90EF900895EA
:100820000F931F930CEB14E0C8010E944303BC011B
:100830006A507040C8010E946D031F910F91089586
:100840000F931F930CEB14E0C8010E944303BC01FB
:10085000665F7F4FC8010E946D031F910F9108953D
:100860008CEB94E00E947F0308958CEB94E00E944F
:100870008F030895FC017183608353834283358322
:100880002483089520E030E04AE754E40E94601594
:100890009B01AC0166E676EA89E594E40E94A81320
:1008A0002DEC3FEA46EE5BE30E9460152EE337E84D
:1008B00042EF51E40E94A9130E94C7159B01AC01AD
:1008C00067E271E380EB90E40E94A8132DEC3FEA0D
:1008D00046E65BEB0E94111420E030E040EF51E46B
:1008E0000E94A9130895AF92BF92CF92DF92EF9228
:1008F000FF920F931F937C0102E515E0C80162EFA0
:1009000071E00E94E80D92E0A92E92E0B92EC80194
:10091000B5010E94E80DF701468157816085718518
:10092000C80122E030E00E94CF0E8BE0C82E82E0AA
:10093000D82EC801B6010E94E80DF7014285538503
:1009400064857585C80124E030E00E94D20EC8019C
:1009500065E172E00E94E80DC801B5010E94E80D52
:10096000F7014685578560897189C80122E030E02A
:100970000E94CF0EC801B6010E94E80DF70142891E
:10098000538964897589C80124E030E00E94D20E41
:10099000C80165E272E00E94E80DC8016DE272E0F4
:1009A0000E94E80DF70146895789608D718DC80155
:1009B00024E030E00E94CF0EC80166E372E00E949E
:1009C000E80DF701428D538D648D758DC80122E0CD
:1009D00030E00E94CF0EC8016FE372E00E94E50E86
:1009E00083E090E01F910F91FF90EF90DF90CF9008
:1009F000BF90AF900895AF92BF92CF92DF92EF92E7
:100A0000FF920F931F93CF93DF936C01FC018081C2
:100A100060E00E944B0A81E08EBD0DB407FEFDCF61
:100A20008EB5AA24BB2472C01EBC0DB407FEFDCF38
:100A30008EB5C80FD11D022E02C0CC0FDD1F0A9447
:100A4000E2F728503040FFEF283F3F0769F7BE012B
:100A5000882777FD8095982F0E94AC1420E73DE30E
:100A60004AEC57E30E946015A114B10431F021E073
:100A7000A216B10409F043C013C0AC01CB01DA01E6
:100A8000F60182879387A487B587BE0180E090E056
:100A90000E94AA14F60166837783808791872FC00E
:100AA000162F072FF82EE92E862F902FAF2DBE2D53
:100AB000F601828B938BA48BB58BBE0180E090E016
:100AC0000E94AA14F60166877787808B918B612F2D
:100AD000702F8F2D9E2D268D378D40A151A10E9404
:100AE00011149B01AC01F601268B378B408F518F7F
:100AF0000E944204F601628F738F848F958F089451
:100B0000A11CB11CF2E0AF16B10429F0C0E0D0E0A6
:100B100028E030E089CFF601808161E00E944B0A35
:100B2000DF91CF911F910F91FF90EF90DF90CF90C9
:100B3000BF90AF90089583E894E00E94FB0408956D
:100B40000F931F938C01FC01808161E00E940C0ACD
:100B5000F801828161E00E940C0AF801848160E062
:100B60000E940C0AF801828160E00E944B0AF801A1
:100B7000828161E00E944B0AF801808161E00E945D
:100B80004B0A82E193E044E650E060E070E02BE93C
:100B900035E00E94271180E090E0A0E0BFE3F8017B
:100BA000868F978FA0A3B1A31F910F910895FC0189
:100BB000738362835183408308950F931F93CF9370
:100BC000DF938C01EB0124E0CC0FDD1F2A95E1F7C8
:100BD000D063FC01828160E00E944B0ADEBD0DB44F
:100BE00007FEFDCF8EB5CEBD0DB407FEFDCF8EB591
:100BF000F801828161E00E944B0A80E090E0DF9181
:100C0000CF911F910F9108950F931F938C01FC01B9
:100C1000808161E00E940C0AF801828161E00E94FB
:100C20000C0AF801808161E00E944B0AF801828180
:100C300061E00E944B0A1F910F910895FC0172839D
:100C400061838FEF9FEF94838383108208950F93C6
:100C50001F938C0182E595E063E472E00E94E80D49
:100C6000F8018081882329F082E595E063E572E050
:100C700004C082E595E067E572E00E94E50E81E040
:100C800090E01F910F910895CF93DF93EC016B815A
:100C90007C818FEF6F3F780721F082E193E00E9423
:100CA0008D108FEF9FEF9C838B83DF91CF91089501
:100CB000CF93DF93EC014D835E836F8378878B81C5
:100CC0009C818F5F9F4F59F482E193E029E936E0E0
:100CD0000E942711992787FD90959C838B83DF9134
:100CE000CF9108950F931F938C01FC01818161E0E6
:100CF0000E944B0A81E0F80180831F910F910895B3
:100D00000F931F938C01FC01818160E00E944B0ACC
:100D1000F80110821F910F910895FC0180818823B2
:100D200021F0CF010E9480060895CF010E94720633
:100D3000089586E794E00E948D0608950F931F930F
:100D40008C018FEF9FEFF80194838383818161E0B1
:100D50000E940C0AF801818160E00E944B0A1F91F9
:100D60000F9108950F931F938C01FC01818160E026
:100D70000E940C0AF801818160E00E940C0A1F9118
:100D80000F910895EF92FF920F931F938CE090E0E4
:100D90000E94F80EF82EE92E6CE572E00E942C0FEE
:100DA00086E090E00E94F80E182F092F62E672E0AC
:100DB0000E946D0F8F2D9E2D612F702F41E557E002
:100DC0000E945C1086E090E00E94F80E182F092F18
:100DD0006AE672E00E946D0F8F2D9E2D612F702F9D
:100DE0004EE357E00E945C1086E090E00E94F80E0F
:100DF000182F092F63E772E00E946D0F8F2D9E2D33
:100E0000612F702F4CE457E00E945C1086E090E068
:100E10000E94F80E182F092F61E872E00E946D0FF2
:100E20008F2D9E2D612F702F43E457E00E945C10A0
:100E300086E090E00E94F80E182F092F6BE972E00F
:100E40000E946D0F8F2D9E2D612F702F41E357E073
:100E50000E945C108F2D9E2D1F910F91FF90EF909F
:100E600008950F931F9306E714E0C8010E944406FB
:100E7000C8010E9480061F910F91089586E794E0B3
:100E80000E948006089586E794E048EE53E060E013
:100E900070E00E945806089586E794E00E948D064F
:100EA000089586E794E00E9472060895FC01718718
:100EB00060878FEF9FEF9387828780E090E0A0E8C4
:100EC000BEE384879587A687B7870895EF92FF9240
:100ED0000F931F937C0102E515E0C80164EB72E0FB
:100EE0000E94E80DC8016BEB72E00E94E80DF7016B
:100EF0004081518162817381C80122E030E00E940B
:100F0000CF0EC80164EC72E00E94E80DF701448145
:100F1000558166817781C80122E030E00E94D20EBF
:100F200081E090E01F910F91FF90EF9008950F9353
:100F30001F938C01FC0180850E948A09AA2797FDD6
:100F4000A095BA2FBC01CD010E94AC14F8016083BA
:100F500071838283938320E030E040E85AE30E946B
:100F6000601520E030E040EA50E40E946015F8018E
:100F70006483758386839783248535854685578565
:100F80000E941114F80164837583868397831F91EF
:100F90000F9108958CEA94E00E9497070895CF93EB
:100FA000DF93EC016A857B858FEF6F3F780721F037
:100FB00082E193E00E948D108FEF9FEF9B878A87DD
:100FC000DF91CF9108950F931F938C01FC018085D1
:100FD00060E00E940C0A82E193E044E650E060E0A9
:100FE00070E02AEC37E00E942711992787FD909541
:100FF000F801938782871F910F91089581309105A1
:1010000009F043C06F5F7F4F09F04CC082E193E06D
:101010000E9430118CEB93E00E94301186E694E040
:101020000E94820F8AE694E060ED72E00E942C0F2D
:1010300086E794E066E070E00E941E068FE794E089
:1010400067E070E042E050E00E94D70583E894E05A
:1010500068E070E045E050E024E030E00E943A04AF
:1010600085EA94E063E070E04AE050E00E942902E3
:101070008CEA94E06EE070E00E9456078CEB94E0FE
:1010800069E070E00E943D030895892B59F46F5F79
:101090007F4F41F48CEA94E00E94CF0786E794E00A
:1010A0000E94B206089580E090E06FEF7FEF0E940B
:1010B000FE07089581E090E06FEF7FEF0E94FE074A
:1010C00008951F9382E595E00E94E10B182F1816F2
:1010D00064F50E949700019719F40E949C0021C0BA
:1010E0001436D1F015361CF41136E9F410C013375C
:1010F00041F01737C1F486E694E060E00E94C10F2A
:1011000010C086E694E060E00E94880F0AC086E680
:1011100094E00E940F1005C086E694E060E00E9413
:10112000FA0F0E947C010E94AD001F91089582E198
:1011300093E00E94D3108CEB93E00E94D3100E94A6
:10114000610808950F931F9382E595E040E052EC0B
:1011500061E070E00E94290B83E00E94000F80E0B4
:101160000E94FB0E0E94110F0E94B602BC010AE60B
:1011700014E0C8010E942B100E94B303BC01C801F7
:101180000E942B100E94C206BC01C8010E942B10B5
:1011900086E694E0B8010E94211086E794E00E9460
:1011A0009E068FE794E00E94040683E894E00E9484
:1011B000A00585EA94E00E949F028CEA94E00E94D8
:1011C000E3078CEB94E00E94A2030E94C9001F91E8
:1011D0000F910895CF93DF930E944F090E94A208B8
:1011E000CBEDDAE00E9497082097E1F30E94DB0A3A
:1011F000F9CF1F920F920FB60F9211242F933F93A6
:101200008F939F93AF93BF938091C5049091C60431
:10121000A091C704B091C8043091C9040196A11DE2
:10122000B11D232F2D5F2D3720F02D570196A11DC5
:10123000B11D2093C9048093C5049093C604A09364
:10124000C704B093C8048091C1049091C204A091D6
:10125000C304B091C4040196A11DB11D8093C104C3
:101260009093C204A093C304B093C404BF91AF9100
:101270009F918F913F912F910F900FBE0F901F90D4
:1012800018958FB7F8942091C5043091C604409109
:10129000C7045091C8048FBFB901CA01089578945A
:1012A00084B5826084BD84B5816084BD85B582606B
:1012B00085BD85B5816085BDEEE6F0E08081816009
:1012C0008083E1E8F0E01082808182608083808109
:1012D00081608083E0E8F0E0808181608083E1EBE1
:1012E000F0E0808184608083E0EBF0E080818160C9
:1012F0008083EAE7F0E0808184608083808182607F
:101300008083808181608083808180688083109267
:10131000C1000895982F8E3008F09E5097708091EC
:10132000ED028295880F880F807C892B80937C004A
:1013300080917A00806480937A0080917A0086FDA3
:10134000FCCF2091780040917900942F80E030E02C
:10135000282B392BC90108951F93CF93DF93182FA2
:10136000EB0161E00E940C0A209709F44AC0CF3FCC
:10137000D10509F449C0E12FF0E0E255FF4F849117
:101380008330C1F0843028F4813051F08230B1F5DF
:101390000CC0863019F1873049F1843079F514C0DA
:1013A00084B5806884BDC7BD33C084B5806284BD08
:1013B000C8BD2EC080918000806880938000D0934B
:1013C0008900C093880024C080918000806280934F
:1013D0008000D0938B00C0938A001AC08091B00027
:1013E00080688093B000C093B30012C08091B000B9
:1013F00080628093B000C093B4000AC0C038D105A9
:101400001CF4812F60E002C0812F61E00E944B0A32
:10141000DF91CF911F910895CF93DF93482F50E034
:10142000CA0186569F4FFC0134914A575F4FFA011B
:101430008491882369F190E0880F991FFC01E85995
:10144000FF4FA591B491FC01EE58FF4FC591D49187
:10145000662351F42FB7F8948C91932F909589239C
:101460008C93888189230BC0623061F42FB7F89484
:101470008C91932F909589238C938881832B8883DB
:101480002FBF06C09FB7F8948C91832B8C939FBF7E
:10149000DF91CF910895482F50E0CA0182559F4FA8
:1014A000FC012491CA0186569F4FFC0194914A5732
:1014B0005F4FFA013491332309F440C0222351F1E4
:1014C000233071F0243028F42130A1F0223011F5BE
:1014D00014C02630B1F02730C1F02430D9F404C054
:1014E000809180008F7703C0809180008F7D8093F2
:1014F000800010C084B58F7702C084B58F7D84BD15
:1015000009C08091B0008F7703C08091B0008F7DBB
:101510008093B000E32FF0E0EE0FFF1FEE58FF4F77
:10152000A591B4912FB7F894662321F48C919095EE
:10153000892302C08C91892B8C932FBF0895089525
:101540001F920F920FB60F9211242F933F934F9338
:101550008F939F93EF93FF938091C00082FD1DC0F6
:101560004091C60020910A0530910B052F5F3F4F37
:101570002F73307080910C0590910D052817390755
:1015800071F0E0910A05F0910B05E653FB4F4083A3
:1015900030930B0520930A0502C08091C600FF918D
:1015A000EF919F918F914F913F912F910F900FBE8F
:1015B0000F901F901895E0915E05F0915F05E05C3B
:1015C000FF4F8191919120813181821B930B8F7309
:1015D0009070892B11F00E949F0A08951F920F921C
:1015E0000FB60F9211242F933F938F939F93EF93F6
:1015F000FF9320914E0530914F05809150059091B9
:1016000051052817390731F48091C1008F7D8093EF
:10161000C10014C0E0915005F0915105E25FFA4F0E
:101620002081809150059091510501968F739070A3
:1016300090935105809350052093C600FF91EF9140
:101640009F918F913F912F910F900FBE0F901F9000
:101650001895AF92BF92DF92EF92FF920F931F9374
:10166000CF93DF93EC017A018B01DD24403081EED2
:10167000580780E0680780E0780711F0DD24D394F4
:1016800091E0A92EB12CEC89FD89DD2069F0C5011E
:1016900008A002C0880F991F0A94E2F7808360E0D7
:1016A00079E08DE390E005C0108260E874E88EE197
:1016B00090E0A80197010E944B1621503040404015
:1016C0005040569547953795279580E1203038074B
:1016D00020F0DD2011F0DD24D6CFE889F9893083B0
:1016E000EA89FB89208319A2EE89FF89408121E0E4
:1016F00030E0C9010C8C02C0880F991F0A94E2F7F0
:10170000482B4083EE89FF894081C9010D8C02C0BE
:10171000880F991F0A94E2F7482B4083EE89FF89CE
:101720004081C9010E8C02C0880F991F0A94E2F70C
:10173000482B4083EE89FF8980810F8C02C0220FE5
:10174000331F0A94E2F7209528232083DF91CF915D
:101750001F910F91FF90EF90DF90BF90AF90089591
:10176000DC011C96ED91FC911D97E05CFF4F2191EF
:10177000319180819181281B390B2F733070C90101
:101780000895DC011C96ED91FC911D97E05CFF4FE4
:1017900020813181E054F040DF01AE5BBF4F8D917D
:1017A0009C9111972817390719F42FEF3FEF07C0C5
:1017B0008D919C91E80FF91F8081282F30E0C9019D
:1017C0000895DC011C96ED91FC911D97E05CFF4FA4
:1017D00020813181E054F040DF01AE5BBF4F8D913D
:1017E0009C9111972817390719F42FEF3FEF10C07C
:1017F0008D919C911197E80FF91F20818D919C91FB
:10180000119701968F73907011969C938E9330E090
:10181000C9010895DC0191968C919197882339F044
:101820005496ED91FC915597808186FFF9CF919662
:101830001C920895CF93DF93EC01EE85FF85E05C69
:10184000FF4F20813181E054F0402F5F3F4F2F73D5
:101850003070DF01AE5BBF4F8D919C9111972817BF
:101860003907D1F3E05CFF4F80819181E054F04073
:10187000E80FF91F6083EE85FF85E05CFF4F318341
:101880002083EE89FF89208181E090E00F8C02C0E7
:10189000880F991F0A94E2F7282B208381E089A3FF
:1018A000EC89FD8980818064808381E090E0DF9114
:1018B000CF910895109255051092540588EE93E04B
:1018C000A0E0B0E08093560590935705A09358058B
:1018D000B093590588EF92E0909353058093520599
:1018E0008AEC94E090935F0580935E058EE095E02E
:1018F000909361058093600585EC90E0909363057B
:101900008093620584EC90E0909365058093640574
:1019100080EC90E0909367058093660581EC90E001
:10192000909369058093680582EC90E090936B0535
:1019300080936A0586EC90E090936D0580936C052A
:1019400084E080936E0583E080936F0587E0809349
:10195000700585E08093710581E08093720508959C
:10196000CF92DF92EF92FF920F931F93CF93DF936B
:101970007C016B018A01C0E0D0E00FC0D6016D91FF
:101980006D01D701ED91FC910190F081E02DC7012F
:101990000995C80FD91F015010400115110571F7A5
:1019A000CE01DF91CF911F910F91FF90EF90DF90CB
:1019B000CF900895EF92FF920F931F938C01DC015B
:1019C000ED91FC910190F081E02D6DE009957C0195
:1019D000D801ED91FC910190F081E02DC8016AE001
:1019E00009959C012E0D3F1DC9011F910F91FF907C
:1019F000EF900895CF93DF93EC016115710519F411
:101A000020E030E00FC0DB010D900020E9F71197D6
:101A1000A61BB70BE881F9810280F381E02DAD01AF
:101A200009959C01C901DF91CF9108954F925F9272
:101A30007F928F929F92AF92BF92CF92DF92EF925E
:101A4000FF920F931F93DF93CF93CDB7DEB7A1978C
:101A50000FB6F894DEBF0FBECDBF2C01742ECB01A4
:101A6000223008F42AE019A231E2C32ED12CCC0E88
:101A7000DD1E822E9924AA24BB24672D752FA50173
:101A800094010E944B1679018A01C801B701A50192
:101A900094010E942C16472D461B0894C108D108BA
:101AA0004A3014F4405D01C0495CF6014083E11402
:101AB000F1040105110521F07E2C5F2DC801DDCF59
:101AC000C201B6010E94FA0CA1960FB6F894DEBFCF
:101AD0000FBECDBFCF91DF911F910F91FF90EF907F
:101AE000DF90CF90BF90AF909F908F907F905F904E
:101AF0004F900895DC012115310541F4ED91FC91E1
:101B00000190F081E02D642F099508950E94160D33
:101B10000895CF92DF92EF92FF920F931F93CF938E
:101B2000DF93EC016A017B012115310541F4E88165
:101B3000F9810190F081E02D642F09951FC02A30B2
:101B40003105D1F477FF17C0E881F9810190F08168
:101B5000E02D6DE209958C0144275527BA014C19F7
:101B60005D096E097F09CE012AE00E94160D9801D9
:101B7000280F391F04C02AE00E94160D9C01C901DC
:101B8000DF91CF911F910F91FF90EF90DF90CF9059
:101B90000895CF92DF92EF92FF920F931F936C0103
:101BA0007B019A010027F7FC0095102FB801A701CF
:101BB0000E94890D8C01C6010E94DA0C080F191FC2
:101BC000C8011F910F91FF90EF90DF90CF90089583
:101BD0000E94FA0C08957F928F929F92AF92BF92CB
:101BE000CF92DF92EF92FF920F931F93CF93DF93E9
:101BF0004C017A018B01722ECB01BA01A801970129
:101C00000E941116882321F0C4016BED72E021C0FF
:101C1000C0E0D0E057016801E894D7F8C601B501EB
:101C20002FEF3FEF4FE75FE70E941116882351F433
:101C3000C601B5012FEF3FEF4FE75FE70E940D149C
:101C4000181614F0C1E0D0E0219739F0C4016FED0F
:101C500072E00E94FA0CEC0193C0C801B7012FEFAB
:101C60003FEF4FE75FE40E945C15181654F0C8017F
:101C7000B7012FEF3FEF4FE75FEC0E940D14882371
:101C800024F4C40163EE72E0E4CFC801B70120E0A0
:101C900030E040E050E00E940D1487FD03C0C0E03A
:101CA000D0E00EC0D401ED91FC910190F081E02DC7
:101CB000C4016DE20995EC0117FB109517F9109519
:101CC00020E030E040E05FE3DD240BC0CA01B90151
:101CD00020E030E040E251E40E9411149B01AC018D
:101CE000D394D71498F3C801B7010E94A9135B01DC
:101CF0006C010E947E147B018C01C401B801A70114
:101D00002AE030E00E947A0DC80FD91F772039F001
:101D1000C40167EE72E00E94FA0CC80FD91FC80117
:101D2000B7010E94AA149B01AC01C601B5010E9433
:101D3000A81324C020E030E040E251E40E94601586
:101D40007B018C010E9479145B016C01CC24B7FCEF
:101D5000C094DC2CC401B601A5012AE030E00E9449
:101D6000890DC80FD91FC601B5010E94AC149B0193
:101D7000AC01C801B7010E94A8137A947720D1F66C
:101D8000CE01DF91CF911F910F91FF90EF90DF90E7
:101D9000CF90BF90AF909F908F907F9008950E94BA
:101DA000EB0D0895EF92FF920F931F937C010E9419
:101DB000EB0D8C01C7010E94DA0C080F191FC80136
:101DC0001F910F91FF90EF900895EF92FF920F9364
:101DD0001F937C010E94FA0C8C01C7010E94DA0C4F
:101DE000080F191FC8011F910F91FF90EF900895E0
:101DF0000E94461108959CB5937F982B9CBD089531
:101E00002CB5382F33702C7F322B3CBD2DB590E094
:101E1000959587959595879581702E7F822B8DBDA1
:101E200008958AE061E00E944B0A8AE061E00E9426
:101E30000C0A8CB580618CBD8CB580648CBD8DE046
:101E400061E00E940C0A8BE061E00E940C0A089598
:101E5000FC01828193810895FC01738362838EE08B
:101E600093E09183808315821482178216821186F3
:101E70001086128613860895FC01838590E0880FF2
:101E8000991F0680F781E02DE80FF91FA081B1812D
:101E9000109719F420E030E009C0ED91FC91119702
:101EA0000190F081E02DCD0109959C01C9010895B3
:101EB000089570E0660F771FDC011696ED91FC9196
:101EC0001797E60FF71F808191810895FC018481A7
:101ED00095810895FC0182850895FC0173836283D6
:101EE00088E093E091838083158214820895DC0159
:101EF0001496ED91FC911597309709F0099580E0C3
:101F000090E00895FC0111821082138212820895DC
:101F1000FC01A281B3811B964C911B97242F30E0CA
:101F20001A968C911A9790E0019728173907B1F00B
:101F3000842F8F5F1B968C931B9790E0880F991FBF
:101F40001696ED91FC911797E80FF91F808191810A
:101F500015969C938E93149781E00895662311F44F
:101F600080E008951B961C921B971696ED91FC91AC
:101F700017978081918115969C938E93149781E099
:101F80000895FC01A281B3811B968C911B97882335
:101F9000A9F081501B968C931B9790E0880F991F96
:101FA0001696ED91FC911797E80FF91F80819181AA
:101FB00015969C938E93149781E00895662311F4EF
:101FC00080E008951A968C911A9781501B968C93F5
:101FD0001B9790E0880F991F1696ED91FC9117972B
:101FE000E80FF91F8081918115969C938E93149729
:101FF00081E008951F93CF93DF93EC01162F8A8120
:102000009B810E943C0F009721F4112321F08881CD
:1020100099819B838A83DF91CF911F910895FC0161
:10202000A281B38180819181A817B90711F480E062
:10203000089518968D919C9119979383828381E0DE
:102040000895FC0171836083738362830895FC01AA
:102050008281938108950F931F93CF93DF93EC01B7
:102060008B016A8570E06F5F7F4F660F771F8E81EF
:102070009F810E947B129F838E83009719F460E0FA
:1020800070E014C0F801D187C087EA85F0E0EE0F58
:10209000FF1FE80FF91F008311838A85882311F43D
:1020A0000C831D838A858F5F8A87B801CB01DF91FE
:1020B000CF911F910F910895EF92FF920F931F936D
:1020C000CF93DF93EC018B017A016A8570E06F5F3B
:1020D0007F4F660F771F8E819F810E947B129F83A7
:1020E0008E83009799F0EA85F0E0EE0FFF1FE80F6E
:1020F000F91F00831183F801F582E4828A85882321
:1021000011F40C831D838A858F5F8A87DF91CF91BD
:102110001F910F91FF90EF9008959C016A3078F421
:10212000862F992787FD9095FC0144E0EE0FFF1F55
:102130004A95E1F7E80FF91FE20FF31F10820895A7
:10214000AF92BF92CF92DF92EF92FF920F931F93C5
:10215000CF93DF935C016A017B018C01C0E0D0E08A
:10216000F8018081882371F0CE0154E0880F991F17
:102170005A95E1F78C0F9D1F8A0D9B1DB701A60193
:102180000E945F1321960F5E1F4FCA30D10541F7A1
:10219000DF91CF911F910F91FF90EF90DF90CF9043
:1021A000BF90AF9008950F931F938C010E94410937
:1021B000AB01BC01C8010E94A0101F910F910895AE
:1021C000FF920F931F93CF93DF93DC01E9019801F6
:1021D000FC01FF248081882341F0F39471968AE00A
:1021E000F816C1F7FF24FA9422C08F2D992787FD96
:1021F00090958C01E4E0000F111FEA95E1F7080FBC
:10220000191F0A0F1B1F81E0F8018083418352834D
:102210006383748336832583D287C1870E944109F3
:10222000F8016387748785879687108A17868F2DB4
:10223000DF91CF911F910F91FF9008950F931F93FE
:1022400001E010E00E94E0101F910F9108950F939C
:102250001F930FEF1FEF0E94E0101F910F91089541
:102260000F931F93CF93DF93EC0100E010E0CE01BA
:10227000800F911F0E945C130F5E1F4F0A3A1105D9
:10228000B1F7DF91CF911F910F9108950F931F9395
:10229000CF93DF93BC018230910510F462E070E0CF
:1022A000E0917605F0917705A0E0B0E040E050E0E5
:1022B00024C08081918186179707D0F086179707F1
:1022C00071F482819381109729F013969C938E93D9
:1022D00012972CC0909377058093760527C04115FF
:1022E000510519F08417950718F4EF018D01AC0121
:1022F000DF01828193819C01F9013097D1F641156C
:102300005105F9F0CA01861B970B8430910580F4C2
:102310008A819B810115110521F0F8019383828345
:1023200004C09093770580937605FE01329645C0F0
:10233000FE01E80FF91F61937193029799838883D7
:102340003CC08091740590917505892B41F4809172
:10235000F0029091F102909375058093740540917D
:10236000F2025091F3024115510541F44DB75EB7A9
:102370008091EE029091EF02481B590B2091740559
:102380003091750524173507B0F4CA01821B930BF1
:102390008617970780F0AB014E5F5F4F8417950754
:1023A00050F0420F531F5093750540937405F90187
:1023B0006193719302C0E0E0F0E0CF01DF91CF9133
:1023C0001F910F910895CF93DF939C01009709F41B
:1023D0008FC0EC0122971B821A8260917605709162
:1023E00077056115710581F488819981820F931FAA
:1023F00020917405309175052817390739F5D09368
:102400007505C093740574C0DB0140E050E0AC1763
:10241000BD0708F1BB83AA83FE0121913191E20F30
:10242000F31FAE17BF0779F48D919C911197280F78
:10243000391F2E5F3F4F3983288312968D919C91CF
:1024400013979B838A834115510571F4D0937705C7
:10245000C09376054DC012968D919C911397AD0156
:10246000009711F0DC01D3CFDA011396DC93CE9301
:102470001297FA0121913191E20FF31FCE17DF0776
:1024800069F488819981280F391F2E5F3F4FFA0127
:10249000318320838A819B8193838283E0E0F0E013
:1024A000DB0112968D919C911397009719F0BC0156
:1024B000FD01F6CFAB014E5F5F4FDB018D919C912B
:1024C000840F951F209174053091750528173907E1
:1024D00079F4309729F4109277051092760502C0AE
:1024E00013821282425050405093750540937405F8
:1024F000DF91CF9108956F927F928F929F92AF92CA
:10250000BF92CF92DF92EF92FF920F931F93CF93E0
:10251000DF938C01009729F4CB010E9446118C01B6
:10252000BBC08EEFE82E8FEFF82EE00EF11E4801B3
:10253000860E971E8E149F0408F4ACC0D7014D91EF
:102540005C91119746175707B8F04530510508F4CC
:10255000A3C0CA0104978617970708F49DC042508C
:102560005040461B570BF401419351936D937C935C
:10257000CF010E94E31190C05B01A41AB50A380193
:10258000640E751EA0917605B0917705CC24DD24EC
:10259000E0E0F0E047C0A615B705A9F5CD91DC91C4
:1025A0001197CE0102968A159B0568F1CE018A1912
:1025B0009B09029612962C91129713963C910597BF
:1025C00058F0F40122833383CA19DB09D183C08315
:1025D000D7016D937C9309C04E5F5F4F4C0F5D1F19
:1025E000F70151834083C901FC01C114D10431F0CA
:1025F000D6011396FC93EE9312974EC0F093770595
:10260000E093760549C08D919C911197E817F907E1
:1026100008F4FC016D0112968C91129713969C910F
:102620009C01D901109709F0B6CF80917405909163
:10263000750586159705E9F4E617F707D0F420919C
:10264000F2023091F3022115310541F42DB73EB766
:102650008091EE029091EF02281B390B82169306AF
:10266000C8F49092750580927405F70171836083B8
:1026700013C0CB010E944611EC01009759F0D7011D
:102680004D915C91B8010E948E00C8010E94E31137
:102690008E0102C000E010E0C801DF91CF911F91D0
:1026A0000F91FF90EF90DF90CF90BF90AF909F90F1
:1026B0008F907F906F900895FC0110820895EF92A3
:1026C000FF920F931F93CF93DF93EC017A018B015D
:1026D0008B859C85AD85BE859A01AB01281B390B86
:1026E0004A0B5B0B89819A81AB81BC812817390722
:1026F0004A075B07E0F08881813019F0823071F47D
:1027000004C0E985FA85099509C060E088858823B9
:1027100009F461E068878F810E944B0AEB86FC8692
:102720000D871E878F8598890196988B8F872D81BD
:102730003E8137FD06C08F859889821793070CF07C
:102740001882DF91CF911F910F91FF90EF90089524
:102750005058BB27AA270ED075C166D130F06BD177
:1027600020F031F49F3F11F41EF45BC10EF4E095AC
:10277000E7FB51C1E92F77D180F3BA1762077307DE
:102780008407950718F071F49EF58FC10EF4E0955B
:102790000B2EBA2FA02D0B01B90190010C01CA011B
:1027A000A0011124FF27591B99F0593F50F4503EC6
:1027B00068F11A16F040A22F232F342F4427585FB8
:1027C000F3CF469537952795A795F0405395C9F7D0
:1027D0007EF41F16BA0B620B730B840BBAF0915088
:1027E000A1F0FF0FBB1F661F771F881FC2F70EC027
:1027F000BA0F621F731F841F48F4879577956795FA
:10280000B795F7959E3F08F0B3CF9395880F08F0E2
:102810009927EE0F979587950895D9D008F481E010
:1028200008950CD00FC107D140F0FED030F021F454
:102830005F3F19F0F0C0511139C1F3C014D198F3C2
:102840009923C9F35523B1F3951B550BBB27AA2731
:1028500062177307840738F09F5F5F4F220F331FA3
:10286000441FAA1FA9F333D00E2E3AF0E0E830D06F
:1028700091505040E695001CCAF729D0FE2F27D072
:10288000660F771F881FBB1F261737074807AB0740
:10289000B0E809F0BB0B802DBF01FF2793585F4FB5
:1028A0002AF09E3F510568F0B6C000C15F3FECF3CF
:1028B000983EDCF3869577956795B795F7959F5F7A
:1028C000C9F7880F911D9695879597F90895E1E0CE
:1028D000660F771F881FBB1F621773078407BA072D
:1028E00020F0621B730B840BBA0BEE1F88F7E09588
:1028F000089504D06894B111D9C00895BCD088F06F
:102900009F5790F0B92F9927B751A0F0D1F0660FDB
:10291000771F881F991F1AF0BA95C9F712C0B130F6
:1029200081F0C3D0B1E00895C0C0672F782F882709
:10293000B85F39F0B93FCCF3869577956795B39535
:10294000D9F73EF490958095709561957F4F8F4FA4
:102950009F4F0895E89409C097FB3EF490958095A9
:10296000709561957F4F8F4F9F4F9923A9F0F92F55
:1029700096E9BB279395F695879577956795B795D3
:10298000F111F8CFFAF4BB0F11F460FF1BC06F5FB9
:102990007F4F8F4F9F4F16C0882311F096E911C0CB
:1029A000772321F09EE8872F762F05C0662371F0EC
:1029B00096E8862F70E060E02AF09A95660F771F00
:1029C000881FDAF7880F9695879597F90895990FDC
:1029D0000008550FAA0BE0E8FEEF16161706E807E9
:1029E000F907C0F012161306E407F50798F0621B0A
:1029F000730B840B950B39F40A2661F0232B242BDF
:102A0000252B21F408950A2609F4A140A6958FEFFD
:102A1000811D811D089597F99F6780E870E060E04F
:102A200008959FEF80EC089500240A941616170667
:102A300018060906089500240A94121613061406AF
:102A400005060895092E0394000C11F4882352F012
:102A5000BB0F40F4BF2B11F460FF04C06F5F7F4FCA
:102A60008F4F9F4F089557FD9058440F551F59F0B1
:102A70005F3F71F04795880F97FB991F61F09F3F6B
:102A800079F087950895121613061406551FF2CF94
:102A90004695F1DF08C0161617061806991FF1CFE4
:102AA00086957105610508940895E894BB2766270B
:102AB0007727CB0197F908958ADF08F48FEF0895FF
:102AC0000BD0C0CFB1DF28F0B6DF18F0952309F0A6
:102AD000A2CFA7CF1124EACFC6DFA0F3959FD1F3F1
:102AE000950F50E0551F629FF001729FBB27F00DBC
:102AF000B11D639FAA27F00DB11DAA1F649F662711
:102B0000B00DA11D661F829F2227B00DA11D621F5F
:102B1000739FB00DA11D621F839FA00D611D221F19
:102B2000749F3327A00D611D231F849F600D211DFD
:102B3000822F762F6A2F11249F5750408AF0E1F0A0
:102B400088234AF0EE0FFF1FBB1F661F771F881FE9
:102B500091505040A9F79E3F510570F05CCFA6CF31
:102B60005F3FECF3983EDCF3869577956795B795D4
:102B7000F795E7959F5FC1F7FE2B880F911D9695FE
:102B8000879597F9089511F40EF44BCF4EC073DF7B
:102B9000D0F39923D9F3CEF39F57550B87FF55D028
:102BA00056959795B0E020F4660F771F881FBB1FDE
:102BB0001F930F9300249001A0018001F001A0E871
:102BC0000E0F1F1F0A1E511D601B710B8009B50BD4
:102BD00048F4600F711F801DB51F0E1B1F0B0A0AE2
:102BE000510907C02E0F3F1F4A1F0E0F1F1F0A1E3D
:102BF000511D660F771F881FBB1FA695F795E79598
:102C0000F8F60617170708065B07211D311D411D41
:102C10000F911F91B901842F9158880F9695879530
:102C20000895D5DE880B990B08959F3F49F0915088
:102C300028F4869577956795B7959F5F80389F4F65
:102C4000880F9695879597F9089591505040660F93
:102C5000771F881FD2F70895629FD001739FF001FC
:102C6000829FE00DF11D649FE00DF11D929FF00D1C
:102C7000839FF00D749FF00D659FF00D9927729F53
:102C8000B00DE11DF91F639FB00DE11DF91FBD01DE
:102C9000CF0111240895A1E21A2EAA1BBB1BFD012E
:102CA0000DC0AA1FBB1FEE1FFF1FA217B307E4072B
:102CB000F50720F0A21BB30BE40BF50B661F771F83
:102CC000881F991F1A9469F7609570958095909563
:102CD0009B01AC01BD01CF010895EE0FFF1F0590D0
:102CE000F491E02D099410E0C6ECD0E004C0FE01A0
:102CF0000E946F162296C83CD107C9F7F894FFCFFF
:102D0000002A2A2A2A2A2A2A2A2A2A2A2A2A2A2A4D
:102D100000773A20757000733A20646F776E006117
:102D20003A2070726576696F757300643A20736536
:102D30006C656374002D2D2D2D2D2B2000202B2D47
:102D40002D2D2D2D002A200020200046616E3A20D6
:102D5000004F6E202D205370656564203D20004F8C
:102D60006666200046616E005475726E206F6E00BC
:102D70005475726E206F666600496E63726561738A
:102D800065205370656564004465637265617365B1
:102D9000205370656564004C45443A20004F6E2016
:102DA0002D204272696768746E657373203D200040
:102DB0004F666620004C4544005475726E206F6E5D
:102DC000005475726E206F666600496E63726561AD
:102DD0007365204272696768746E65737300446539
:102DE000637265617365204272696768746E6573AA
:102DF0007300414443204368616E6E656C20303A35
:102E0000200056616C7565203D200020566F6C7463
:102E100073203D2000414443204368616E6E656C21
:102E200020313A20004C4D5438343A2000566F6C13
:102E30007473203D20002054656D70203D2000C239
:102E4000BA430052656C61793A205374617465200D
:102E50003D2000206F6E00206F66660052656C6139
:102E600079005475726E206F6E005475726E206F0B
:102E7000666600546F67676C65206F6E2F6F6666BD
:102E800000537461727420636F6E74696E756F7530
:102E90007320746F67676C696E670053746F70207E
:102EA000636F6E74696E756F757320746F67676C8E
:102EB000696E67005641444A3A200056616C756558
:102EC000203D200020566F6C74616765203D200016
:102ED00042656E63684275644545006E616E0069C7
:102EE0006E66006F7666002E00FFFFFFFF01800018
:102EF00078050000000000001A0CB00CB00BE10BCC
:102F0000C10B0A0C00000000770F00000000580FF2
:00000001FF
