:100000000C9464000C948C000C948C000C948C0068
:100010000C948C000C948C000C948C000C948C0030
:100020000C948C000C948C000C948C000C948C0020
:100030000C948C000C948C000C948C000C948C0010
:100040000C94A6060C948C000C944D080C949B0800
:100050000C948C000C948C000C948C000C948C00F0
:100060000C948C000C948C000000000024002700ED
:100070002A0000000000250028002B0000000000DE
:1000800023002600290004040404040404040202DA
:100090000202020203030303030301020408102007
:1000A0004080010204081020010204081020000012
:1000B0000007000201000003040600000000000029
:1000C00000000F06070A080611241FBECFEFD8E074
:1000D000DEBFCDBF12E0A0E0B1E0E0E9F7E202C090
:1000E00005900D92A439B107D9F714E0A4E9B2E064
:1000F00001C01D92A53DB107E1F710E0C6ECD0E0CC
:1001000004C02297FE010E94B713C23CD107C9F771
:100110000E9497060C94BB130C940000FB01DC01B9
:1001200002C001900D9241505040D8F7089580913F
:100130006E0290916F02089580E493E060916C02EA
:100140000E943A0E8FEF9FEF90936D0280936C02A6
:1001500010926F0210926E0208950F931F9300E4A5
:1001600013E0C80160916C020E943A0EC8014CED88
:1001700055E060E070E029EC30E00E94CB0E99275A
:1001800087FD909590936D0280936C021F910F9163
:10019000089581E090E090936F0280936E0280E476
:1001A00093E048EE53E060E070E02AEE31E00E9418
:1001B000D40E992787FD909590936D0280936C02E1
:1001C00008950FC08FEA94E060E071E00E94920C05
:1001D000809194029091950201969093950280935C
:1001E0009402809194029091950247975CF3089550
:1001F000CF93DF931092950210929402C0E0D0E06A
:100200008FEA94E060E071E00E94920C2196C73181
:10021000D105B1F7DF91CF910895EF92FF920F933F
:100220001F930FEA14E081E0E82E81E0F82EC80168
:10023000B7010E94920C80919402909195020196D0
:100240009093950280939402C80161E171E00E944D
:10025000920C809194029091950201969093950250
:1002600080939402C80167E171E00E94920C809132
:100270009402909195020196909395028093940236
:10028000C8016FE171E00E94920C809194029091FC
:10029000950201969093950280939402C8016BE2B7
:1002A00071E00E94920C80919402909195020196C7
:1002B0009093950280939402C801B7010E94920C1A
:1002C000809194029091950201969093950280936B
:1002D0009402C80160E071E00E94920C8091940247
:1002E00090919502019690939502809394021F91AC
:1002F0000F91FF90EF900895CF92DF92EF92FF92CF
:100300000F931F93CF93DF930E949C000E94F800ED
:100310000E940D018AEE93E00E94D40D7C018FEAC9
:1003200094E065E371E00E94950BC7010E94D50C33
:10033000BC018FEA94E00E94950B8FEA94E06DE394
:1003400071E00E94920C8091940290919502019626
:100350009093950280939402C7010E94130D6C0143
:10036000C0E0D0E025C0C7016C2F0E94060D8C01B3
:10037000C816D90629F48FEA94E065E471E004C058
:100380008FEA94E068E471E00E94950BC8010E9436
:10039000D50CBC018FEA94E00E94920C80919402EB
:1003A00090919502019690939502809394022196E4
:1003B000C7010E94170D90E0C817D907A4F20E9448
:1003C000E100DF91CF911F910F91FF90EF90DF90AF
:1003D000CF9008950F931F930E94F800009194020C
:1003E000109195028AEF93E00E94E903080F191F0C
:1003F000109395020093940287E094E00E941F02FC
:10040000080F191F10939502009394028EE094E058
:100410000E942805080F191F10939502009394025B
:100420000E94E1001F910F910895FC017283618386
:10043000548343830895FC01858196810895CF9369
:10044000DF93EC018FEA94E06BE471E00E94950B7E
:100450008881882379F08FEA94E061E571E00E9459
:10046000950B6D817E818FEA94E04AE050E00E9416
:10047000760B06C08FEA94E06FE571E00E94920C63
:1004800081E090E0DF91CF910895FC01CB016F3FB7
:10049000710514F08EEF90E097FF02C080E090E0CD
:1004A000968385836EEF70E0681B790B83810E94D1
:1004B000590708950F931F938C0183E094E06AE03D
:1004C00070E00E948F03F801818161E00E94F807CB
:1004D000C8016EEF70E00E94450281E0F801808360
:1004E0001F910F9108950F931F938C0183E094E067
:1004F00060E070E00E948F03F801818160E00E945B
:10050000F807F801838160E00E94B907F8011082C2
:100510001F910F9108950F931F938C01FC0181810E
:1005200061E00E94B907F801818160E00E94F8074C
:10053000F801838161E00E94B907F80110821F91E0
:100540000F910895EF92FF920F931F938CE090E02C
:100550000E94A50CF82EE92E64E671E00E94D90CE9
:1005600086E090E00E94A50C182F092F68E671E044
:100570000E941A0D8F2D9E2D612F702F44E253E0A3
:100580000E94090E86E090E00E94A50C182F092F0A
:1005900060E771E00E941A0D8F2D9E2D612F702F44
:1005A0004FE153E00E94090E86E090E00E94A50C06
:1005B000182F092F69E771E00E941A0D8F2D9E2DCB
:1005C000612F702F4FE053E00E94090E86E090E00B
:1005D0000E94A50C182F092F68E871E00E941A0DDF
:1005E0008F2D9E2D612F702F4FEF52E00E94090E2C
:1005F0008F2D9E2D1F910F91FF90EF9008950F93D7
:100600001F9307E014E0C8010E941B02BC01645163
:100610007040C8010E9445021F910F9108950F93E9
:100620001F9307E014E0C8010E941B02BC016C5E2E
:100630007F4FC8010E9445021F910F91089587E0E6
:1006400094E00E947302089587E094E00E945A02A9
:1006500008950895CF92DF92EF92FF920F931F9328
:100660008CE090E00E94A50CD82EC92E67E971E0BD
:100670000E94D90C86E090E00E94A50CF82EE92E8D
:100680006BE971E00E941A0D09E213E08D2D9C2D9B
:100690006F2D7E2DA8010E94090E86E090E00E9439
:1006A000A50CF82EE92E63EA71E00E941A0D8D2D3B
:1006B0009C2D6F2D7E2DA8010E94090E86E090E0F2
:1006C0000E94A50CF82EE92E6CEA71E00E941A0D2A
:1006D0008D2D9C2D6F2D7E2DA8010E94090E86E088
:1006E00090E00E94A50CF82EE92E6AEB71E00E94C2
:1006F0001A0D8D2D9C2D6F2D7E2DA8010E94090EA7
:100700008D2D9C2D1F910F91FF90EF90DF90CF903A
:100710000895FC01738362835183408308950F938E
:100720001F93CF93DF938C01EB0124E0CC0FDD1FEF
:100730002A95E1F7D063FC01828160E00E94F8070E
:10074000DEBD0DB407FEFDCF8EB5CEBD0DB407FEE8
:10075000FDCF8EB5F801828161E00E94F80780E04C
:1007600090E0DF91CF911F910F9108950F931F9308
:100770008C01FC01808160E00E94F807F801828111
:1007800061E00E94F8071F910F9108950F931F9346
:100790008C01FC01808161E00E94B907F80182812F
:1007A00061E00E94B907F801808161E00E94F807CA
:1007B000F801828161E00E94F8071F910F9108956E
:1007C000FC01728361838FEF9FEF94838383108298
:1007D00008950F931F938C018FEA94E066EC71E00B
:1007E0000E94950BF8018081882329F08FEA94E01C
:1007F00066ED71E004C08FEA94E06AED71E00E945A
:10080000920C81E090E01F910F910895CF93DF93B8
:10081000EC016B817C818FEF6F3F780721F086E9D7
:1008200092E00E943A0E8FEF9FEF9C838B83DF91C3
:10083000CF910895CF93DF93EC014D835E836F8357
:1008400078878B819C818F5F9F4F59F486E992E076
:100850002BE534E00E94D40E992787FD90959C8368
:100860008B83DF91CF9108950F931F938C01FC012F
:10087000818161E00E94F80781E0F80180831F9187
:100880000F9108950F931F938C01FC01818160E00B
:100890000E94F807F80110821F910F910895FC0142
:1008A0008081882321F0CF010E9442040895CF0166
:1008B0000E94340408958AEF93E00E944F04089543
:1008C0000F931F938C018FEF9FEFF8019483838325
:1008D000818161E00E94B907F801818160E00E9496
:1008E000F8071F910F9108950F931F938C01FC013E
:1008F000818160E00E94B907F801818160E00E9477
:10090000B9071F910F910895EF92FF920F931F93D4
:100910008CE090E00E94A50CF82EE92E6FED71E0BE
:100920000E94D90C86E090E00E94A50C182F092F98
:1009300065EE71E00E941A0D8F2D9E2D612F702F94
:1009400043E155E00E94090E86E090E00E94A50C6C
:10095000182F092F6DEE71E00E941A0D8F2D9E2D1C
:10096000612F702F40E055E00E94090E86E090E074
:100970000E94A50C182F092F66EF71E00E941A0D36
:100980008F2D9E2D612F702F4EE055E00E94090E95
:1009900086E090E00E94A50C182F092F64E072E019
:1009A0000E941A0D8F2D9E2D612F702F45E055E06E
:1009B0000E94090E86E090E00E94A50C182F092FD6
:1009C0006EE172E00E941A0D8F2D9E2D612F702F07
:1009D00043EF54E00E94090E8F2D9E2D1F910F9121
:1009E000FF90EF9008950F931F930AEF13E0C80153
:1009F0000E940604C8010E9442041F910F910895AD
:100A00008AEF93E00E94420408958AEF93E048EE53
:100A100053E060E070E00E941A0408958AEF93E0CA
:100A20000E944F0408958AEF93E00E9434040895D1
:100A3000FC01718760878FEF9FEF9387828780E04B
:100A400090E0A0E8BEE384879587A687B7870895DE
:100A5000EF92FF920F931F937C010FEA14E0C801FD
:100A600067E372E00E94950BC8016EE372E00E949A
:100A7000950BF7014081518162817381C80122E0A9
:100A800030E00E947C0CC80167E472E00E94950B84
:100A9000F7014481558166817781C80122E030E009
:100AA0000E947F0C81E090E01F910F91FF90EF90EA
:100AB00008950F931F938C01FC0180850E943707D6
:100AC000AA2797FDA095BA2FBC01CD010E9459120B
:100AD000F801608371838283938320E030E040E8F3
:100AE0005AE30E940D1320E030E040EA50E40E94F7
:100AF0000D13F80164837583868397832485358578
:100B0000468557850E94BE11F801648375838683EC
:100B100097831F910F9108958EE094E00E945905EC
:100B20000895CF93DF93EC016A857B858FEF6F3F4C
:100B3000780721F086E992E00E943A0E8FEF9FEF4E
:100B40009B878A87DF91CF9108950F931F938C0124
:100B5000FC01808560E00E94B90786E992E044E6E6
:100B600050E060E070E02CE835E00E94D40E992758
:100B700087FD9095F801938782871F910F910895C3
:100B80008130910599F56F5F7F4F09F040C086E98C
:100B900092E00E94DD0E80E493E00E94DD0E8AEE7A
:100BA00093E00E942F0D8EEE93E063E572E00E94C9
:100BB000D90C8AEF93E066E070E00E94E00383E0E6
:100BC00094E067E070E042E050E00E94890387E033
:100BD00094E063E070E04AE050E00E9415028EE08D
:100BE00094E06EE070E00E9418050895892B79F476
:100BF0006F5F7F4F61F48EE094E00E94910583E087
:100C000094E00E94B6038AEF93E00E947404089572
:100C100080E090E06FEF7FEF0E94C005089581E0D3
:100C200090E06FEF7FEF0E94C00508951F938FEA59
:100C300094E00E948E09182F181664F50E94970000
:100C4000019719F40E949C0021C01436D1F015368A
:100C50001CF41136E9F410C0133741F01737C1F412
:100C60008AEE93E060E00E946E0D10C08AEE93E081
:100C700060E00E94350D0AC08AEE93E00E94BC0D30
:100C800005C08AEE93E060E00E94A70D0E947C01FF
:100C90000E94AD001F91089586E992E00E94800EA7
:100CA00080E493E00E94800E0E94160608950F9340
:100CB0001F938FEA94E040E855E260E070E00E9404
:100CC000D60883E00E94AD0C80E00E94A80C0E9430
:100CD000BE0C0E94A202BC010EEE13E0C8010E94ED
:100CE000D80D0E942A03BC01C8010E94D80D0E94A1
:100CF0008404BC01C8010E94D80D8AEE93E0B801BB
:100D00000E94CE0D8AEF93E00E94600483E094E09D
:100D10000E94C60387E094E00E948B028EE094E07C
:100D20000E94A5050E94C9001F910F910895CF93BD
:100D3000DF930E94FC060E945706C8E8D8E00E9494
:100D40004C062097E1F30E948808F9CF1F920F927A
:100D50000FB60F9211242F933F938F939F93AF93CE
:100D6000BF938091220490912304A0912404B09118
:100D70002504309126040196A11DB11D232F2D5F5E
:100D80002D3720F02D570196A11DB11D209326046B
:100D90008093220490932304A0932404B093250409
:100DA00080911E0490911F04A0912004B091210411
:100DB0000196A11DB11D80931E0490931F04A09362
:100DC0002004B0932104BF91AF919F918F913F91E7
:100DD0002F910F900FBE0F901F9018958FB7F8941A
:100DE0002091220430912304409124045091250441
:100DF0008FBFB901CA010895789484B5826084BD1B
:100E000084B5816084BD85B5826085BD85B581600E
:100E100085BDEEE6F0E0808181608083E1E8F0E06E
:100E20001082808182608083808181608083E0E89D
:100E3000F0E0808181608083E1EBF0E0808184607C
:100E40008083E0EBF0E0808181608083EAE7F0E07E
:100E500080818460808380818260808380818160E2
:100E600080838081806880831092C1000895982FCC
:100E70008E3008F09E509770809170028295880F96
:100E8000880F807C892B80937C0080917A0080641D
:100E900080937A0080917A0086FDFCCF20917800C3
:100EA00040917900942F80E030E0282B392BC90144
:100EB00008951F93CF93DF93182FEB0161E00E94F9
:100EC000B907209709F44AC0CF3FD10509F449C0BA
:100ED000E12FF0E0E255FF4F84918330C1F0843080
:100EE00028F4813051F08230B1F50CC0863019F110
:100EF000873049F1843079F514C084B5806884BDA9
:100F0000C7BD33C084B5806284BDC8BD2EC080918A
:100F10008000806880938000D0938900C09388000F
:100F200024C080918000806280938000D0938B00E9
:100F3000C0938A001AC08091B00080688093B0008E
:100F4000C093B30012C08091B00080628093B00063
:100F5000C093B4000AC0C038D1051CF4812F60E0F2
:100F600002C0812F61E00E94F807DF91CF911F91AD
:100F70000895CF93DF93482F50E0CA0186569F4FC4
:100F8000FC0134914A575F4FFA018491882369F13B
:100F900090E0880F991FFC01E859FF4FA591B4918B
:100FA000FC01EE58FF4FC591D491662351F42FB741
:100FB000F8948C91932F909589238C938881892321
:100FC0000BC0623061F42FB7F8948C91932F9095F9
:100FD00089238C938881832B88832FBF06C09FB77A
:100FE000F8948C91832B8C939FBFDF91CF910895C0
:100FF000482F50E0CA0182559F4FFC012491CA013D
:1010000086569F4FFC0194914A575F4FFA013491E5
:10101000332309F440C0222351F1233071F02430EE
:1010200028F42130A1F0223011F514C02630B1F09F
:101030002730C1F02430D9F404C0809180008F772C
:1010400003C0809180008F7D8093800010C084B5A4
:101050008F7702C084B58F7D84BD09C08091B000B8
:101060008F7703C08091B0008F7D8093B000E32F15
:10107000F0E0EE0FFF1FEE58FF4FA591B4912FB790
:10108000F894662321F48C919095892302C08C9169
:10109000892B8C932FBF089508951F920F920FB63E
:1010A0000F9211242F933F934F938F939F93EF931E
:1010B000FF938091C00082FD1DC04091C600209129
:1010C0006704309168042F5F3F4F2F733070809119
:1010D000690490916A042817390771F0E091670458
:1010E000F0916804E95DFB4F4083309368042093DE
:1010F000670402C08091C600FF91EF919F918F918C
:101100004F913F912F910F900FBE0F901F90189508
:10111000E091BB04F091BC04E05CFF4F81919191A0
:1011200020813181821B930B8F739070892B11F07A
:101130000E944C0808951F920F920FB60F9211242F
:101140002F933F938F939F93EF93FF932091AB0443
:101150003091AC048091AD049091AE04281739070A
:1011600031F48091C1008F7D8093C10014C0E09163
:10117000AD04F091AE04E559FB4F20818091AD04A0
:101180009091AE0401968F7390709093AE0480930B
:10119000AD042093C600FF91EF919F918F913F91F5
:1011A0002F910F900FBE0F901F901895AF92BF9286
:1011B000DF92EF92FF920F931F93CF93DF93EC0197
:1011C0007A018B01DD24403081EE580780E068070A
:1011D00080E0780711F0DD24D39491E0A92EB12CA2
:1011E000EC89FD89DD2069F0C50108A002C0880FE7
:1011F000991F0A94E2F7808360E079E08DE390E044
:1012000005C0108260E874E88EE190E0A8019701C3
:101210000E949313215030404040504056954795CE
:101220003795279580E12030380720F0DD2011F038
:10123000DD24D6CFE889F9893083EA89FB892083C8
:1012400019A2EE89FF89408121E030E0C9010C8CB0
:1012500002C0880F991F0A94E2F7482B4083EE8959
:10126000FF894081C9010D8C02C0880F991F0A9423
:10127000E2F7482B4083EE89FF894081C9010E8C3B
:1012800002C0880F991F0A94E2F7482B4083EE8929
:10129000FF8980810F8C02C0220F331F0A94E2F76E
:1012A000209528232083DF91CF911F910F91FF90EC
:1012B000EF90DF90BF90AF900895DC011C96ED9108
:1012C000FC911D97E05CFF4F2191319180819181CC
:1012D000281B390B2F733070C9010895DC011C964F
:1012E000ED91FC911D97E05CFF4F20813181E0542E
:1012F000F040DF01AE5BBF4F8D919C911197281795
:10130000390719F42FEF3FEF07C08D919C91E80F3B
:10131000F91F8081282F30E0C9010895DC011C9657
:10132000ED91FC911D97E05CFF4F20813181E054ED
:10133000F040DF01AE5BBF4F8D919C911197281754
:10134000390719F42FEF3FEF10C08D919C91119741
:10135000E80FF91F20818D919C91119701968F7351
:10136000907011969C938E9330E0C9010895DC0132
:1013700091968C919197882339F05496ED91FC9138
:101380005597808186FFF9CF91961C920895CF934F
:10139000DF93EC01EE85FF85E05CFF4F208131811A
:1013A000E054F0402F5F3F4F2F733070DF01AE5B92
:1013B000BF4F8D919C91119728173907D1F3E05CAD
:1013C000FF4F80819181E054F040E80FF91F608366
:1013D000EE85FF85E05CFF4F31832083EE89FF8936
:1013E000208181E090E00F8C02C0880F991F0A9441
:1013F000E2F7282B208381E089A3EC89FD89808195
:101400008064808381E090E0DF91CF910895109215
:10141000B2041092B10488EE93E0A0E0B0E08093B3
:10142000B3049093B404A093B504B093B6048BE7CF
:1014300092E09093B0048093AF0487E294E090939D
:10144000BC048093BB048BE694E09093BE0480932D
:10145000BD0485EC90E09093C0048093BF0484ECBD
:1014600090E09093C2048093C10480EC90E090934C
:10147000C4048093C30481EC90E09093C6048093ED
:10148000C50482EC90E09093C8048093C70486EC76
:1014900090E09093CA048093C90484E08093CB04C5
:1014A00083E08093CC0487E08093CD0485E0809333
:1014B000CE0481E08093CF040895CF92DF92EF9223
:1014C000FF920F931F93CF93DF937C016B018A01EF
:1014D000C0E0D0E00FC0D6016D916D01D701ED9154
:1014E000FC910190F081E02DC7010995C80FD91F2B
:1014F000015010400115110571F7CE01DF91CF9118
:101500001F910F91FF90EF90DF90CF900895EF9291
:10151000FF920F931F938C01DC01ED91FC910190E0
:10152000F081E02D6DE009957C01D801ED91FC91F1
:101530000190F081E02DC8016AE009959C012E0D13
:101540003F1DC9011F910F91FF90EF900895CF9318
:10155000DF93EC016115710519F420E030E00FC054
:10156000DB010D900020E9F71197A61BB70BE8816E
:10157000F9810280F381E02DAD0109959C01C9013B
:10158000DF91CF9108954F925F927F928F929F92B9
:10159000AF92BF92CF92DF92EF92FF920F931F9381
:1015A000DF93CF93CDB7DEB7A1970FB6F894DEBF28
:1015B0000FBECDBF2C01742ECB01223008F42AE0DF
:1015C00019A231E2C32ED12CCC0EDD1E822E99241D
:1015D000AA24BB24672D752FA50194010E949313A3
:1015E00079018A01C801B701A50194010E94741311
:1015F000472D461B0894C108D1084A3014F4405DB9
:1016000001C0495CF6014083E114F10401051105B4
:1016100021F07E2C5F2DC801DDCFC201B6010E94F2
:10162000A70AA1960FB6F894DEBF0FBECDBFCF912B
:10163000DF911F910F91FF90EF90DF90CF90BF90BF
:10164000AF909F908F907F905F904F900895DC01B6
:101650002115310541F4ED91FC910190F081E02DCF
:10166000642F099508950E94C30A0895CF92DF92CE
:10167000EF92FF920F931F93CF93DF93EC016A01D8
:101680007B012115310541F4E881F9810190F08158
:10169000E02D642F09951FC02A303105D1F477FF62
:1016A00017C0E881F9810190F081E02D6DE2099584
:1016B0008C0144275527BA014C195D096E097F0931
:1016C000CE012AE00E94C30A9801280F391F04C0E6
:1016D0002AE00E94C30A9C01C901DF91CF911F91AA
:1016E0000F91FF90EF90DF90CF900895CF92DF920F
:1016F000EF92FF920F931F936C017B019A010027D9
:10170000F7FC0095102FB801A7010E94360B8C0141
:10171000C6010E94870A080F191FC8011F910F9167
:10172000FF90EF90DF90CF9008950E94A70A089550
:101730007F928F929F92AF92BF92CF92DF92EF9261
:10174000FF920F931F93CF93DF934C017A018B018C
:10175000722ECB01BA01A80197010E947013882351
:1017600021F0C4016EE572E021C0C0E0D0E0570175
:101770006801E894D7F8C601B5012FEF3FEF4FE7B6
:101780005FE70E947013882351F4C601B5012FEF63
:101790003FEF4FE75FE70E94BA11181614F0C1E05F
:1017A000D0E0219739F0C40162E672E00E94A70AF6
:1017B000EC0193C0C801B7012FEF3FEF4FE75FE4A3
:1017C0000E940913181654F0C801B7012FEF3FEF1C
:1017D0004FE75FEC0E94BA11882324F4C40166E647
:1017E00072E0E4CFC801B70120E030E040E050E013
:1017F0000E94BA1187FD03C0C0E0D0E00EC0D40142
:10180000ED91FC910190F081E02DC4016DE209950C
:10181000EC0117FB109517F9109520E030E040E03F
:101820005FE3DD240BC0CA01B90120E030E040E2F3
:1018300051E40E94BE119B01AC01D394D71498F3DC
:10184000C801B7010E9456115B016C010E942B1266
:101850007B018C01C401B801A7012AE030E00E949D
:10186000270BC80FD91F772039F0C4016AE672E050
:101870000E94A70AC80FD91FC801B7010E945712BA
:101880009B01AC01C601B5010E94551124C020E0A6
:1018900030E040E251E40E940D137B018C010E9474
:1018A00026125B016C01CC24B7FCC094DC2CC40173
:1018B000B601A5012AE030E00E94360BC80FD91FFF
:1018C000C601B5010E9459129B01AC01C801B701C4
:1018D0000E9455117A947720D1F6CE01DF91CF91F5
:1018E0001F910F91FF90EF90DF90CF90BF90AF903E
:1018F0009F908F907F9008950E94980B0895EF928B
:10190000FF920F931F937C010E94980B8C01C701DB
:101910000E94870A080F191FC8011F910F91FF909D
:10192000EF900895EF92FF920F931F937C010E9416
:10193000A70A8C01C7010E94870A080F191FC80156
:101940001F910F91FF90EF9008950E94F30E08955C
:101950009CB5937F982B9CBD08952CB5382F337080
:101960002C7F322B3CBD2DB590E0959587959595B4
:10197000879581702E7F822B8DBD08958AE061E06E
:101980000E94F8078AE061E00E94B9078CB5806187
:101990008CBD8CB580648CBD8DE061E00E94B90780
:1019A0008BE061E00E94B9070895FC018281938178
:1019B0000895FC017383628381E992E091838083BF
:1019C000158214821782168211861086128613865B
:1019D0000895FC01838590E0880F991F0680F781A8
:1019E000E02DE80FF91FA081B181109719F420E0D4
:1019F00030E009C0ED91FC9111970190F081E02D4C
:101A0000CD0109959C01C9010895089570E0660F04
:101A1000771FDC011696ED91FC911797E60FF71FE3
:101A2000808191810895FC01848195810895FC0154
:101A300082850895FC01738362838BE892E0918331
:101A40008083158214820895DC011496ED91FC9137
:101A50001597309709F0099580E090E00895FC0112
:101A600011821082138212820895FC01A281B38137
:101A70001B964C911B97242F30E01A968C911A9745
:101A800090E0019728173907B1F0842F8F5F1B96DC
:101A90008C931B9790E0880F991F1696ED91FC91FF
:101AA0001797E80FF91F8081918115969C938E936B
:101AB000149781E00895662311F480E008951B9641
:101AC0001C921B971696ED91FC911797808191813E
:101AD00015969C938E93149781E00895FC01A28142
:101AE000B3811B968C911B978823A9F081501B967C
:101AF0008C931B9790E0880F991F1696ED91FC919F
:101B00001797E80FF91F8081918115969C938E930A
:101B1000149781E00895662311F480E008951A96E1
:101B20008C911A9781501B968C931B9790E0880F8D
:101B3000991F1696ED91FC911797E80FF91F808178
:101B4000918115969C938E93149781E008951F932D
:101B5000CF93DF93EC01162F8A819B810E94E90CC1
:101B6000009721F4112321F0888199819B838A8336
:101B7000DF91CF911F910895FC01A281B3818081F3
:101B80009181A817B90711F480E0089518968D91F6
:101B90009C9119979383828381E00895FC0171835E
:101BA0006083738362830895FC0182819381089529
:101BB0000F931F93CF93DF93EC018B016A8570E045
:101BC0006F5F7F4F660F771F8E819F810E94281065
:101BD0009F838E83009719F460E070E014C0F801D1
:101BE000D187C087EA85F0E0EE0FFF1FE80FF91FED
:101BF000008311838A85882311F40C831D838A85D1
:101C00008F5F8A87B801CB01DF91CF911F910F9130
:101C10000895EF92FF920F931F93CF93DF93EC0100
:101C20008B017A016A8570E06F5F7F4F660F771FC7
:101C30008E819F810E9428109F838E83009799F048
:101C4000EA85F0E0EE0FFF1FE80FF91F0083118314
:101C5000F801F582E4828A85882311F40C831D83C0
:101C60008A858F5F8A87DF91CF911F910F91FF90B7
:101C7000EF9008959C016A3078F4862F992787FDAC
:101C80009095FC0144E0EE0FFF1F4A95E1F7E80F45
:101C9000F91FE20FF31F10820895AF92BF92CF9207
:101CA000DF92EF92FF920F931F93CF93DF935C012C
:101CB0006A017B018C01C0E0D0E0F80180818823BB
:101CC00071F0CE0154E0880F991F5A95E1F78C0FFF
:101CD0009D1F8A0D9B1DB701A6010E940C11219624
:101CE0000F5E1F4FCA30D10541F7DF91CF911F9191
:101CF0000F91FF90EF90DF90CF90BF90AF9008953D
:101D00000F931F938C010E94EE06AB01BC01C8012A
:101D10000E944D0E1F910F910895FF920F931F93F4
:101D2000CF93DF93DC01E9019801FC01FF2480815E
:101D3000882341F0F39471968AE0F816C1F7FF24E6
:101D4000FA9422C08F2D992787FD90958C01E4E0AD
:101D5000000F111FEA95E1F7080F191F0A0F1B1F4B
:101D600081E0F801808341835283638374833683E7
:101D70002583D287C1870E94EE06F80163877487A6
:101D800085879687108A17868F2DDF91CF911F91B7
:101D90000F91FF9008950F931F9301E010E00E94B0
:101DA0008D0E1F910F9108950F931F930FEF1FEF4B
:101DB0000E948D0E1F910F9108950F931F93CF9343
:101DC000DF93EC0100E010E0CE01800F911F0E9434
:101DD00009110F5E1F4F0A3A1105B1F7DF91CF913C
:101DE0001F910F9108950F931F93CF93DF93BC0121
:101DF0008230910510F462E070E0E091D304F0913C
:101E0000D404A0E0B0E040E050E024C080819181A3
:101E100086179707D0F08617970771F48281938110
:101E2000109729F013969C938E9312972CC0909341
:101E3000D4048093D30427C04115510519F08417A9
:101E4000950718F4EF018D01AC01DF0182819381C8
:101E50009C01F9013097D1F641155105F9F0CA01FD
:101E6000861B970B8430910580F48A819B81011534
:101E7000110521F0F8019383828304C09093D40468
:101E80008093D304FE01329645C0FE01E80FF91F8E
:101E9000619371930297998388833CC08091D104A8
:101EA0009091D204892B41F4809173029091740235
:101EB0009093D2048093D1044091750250917602A0
:101EC0004115510541F44DB75EB780917102909173
:101ED0007202481B590B2091D1043091D20424176F
:101EE0003507B0F4CA01821B930B8617970780F061
:101EF000AB014E5F5F4F8417950750F0420F531FA1
:101F00005093D2044093D104F9016193719302C0BC
:101F1000E0E0F0E0CF01DF91CF911F910F910895A4
:101F2000CF93DF939C01009709F48FC0EC012297B7
:101F30001B821A826091D3047091D40461157105DB
:101F400081F488819981820F931F2091D10430916F
:101F5000D2042817390739F5D093D204C093D1049D
:101F600074C0DB0140E050E0AC17BD0708F1BB8353
:101F7000AA83FE0121913191E20FF31FAE17BF0733
:101F800079F48D919C911197280F391F2E5F3F4F47
:101F90003983288312968D919C9113979B838A8312
:101FA0004115510571F4D093D404C093D3044DC0AE
:101FB00012968D919C911397AD01009711F0DC0161
:101FC000D3CFDA011396DC93CE931297FA012191C5
:101FD0003191E20FF31FCE17DF0769F488819981F1
:101FE000280F391F2E5F3F4FFA01318320838A81EA
:101FF0009B8193838283E0E0F0E0DB0112968D9178
:102000009C911397009719F0BC01FD01F6CFAB012D
:102010004E5F5F4FDB018D919C91840F951F209146
:10202000D1043091D2042817390779F4309729F474
:102030001092D4041092D30402C013821282425030
:1020400050405093D2044093D104DF91CF91089532
:102050006F927F928F929F92AF92BF92CF92DF92B8
:10206000EF92FF920F931F93CF93DF938C01009712
:1020700029F4CB010E94F30E8C01BBC08EEFE82E39
:102080008FEFF82EE00EF11E4801860E971E8E147B
:102090009F0408F4ACC0D7014D915C91119746178D
:1020A0005707B8F04530510508F4A3C0CA0104979A
:1020B0008617970708F49DC042505040461B570BA7
:1020C000F401419351936D937C93CF010E94900F43
:1020D00090C05B01A41AB50A3801640E751EA09168
:1020E000D304B091D404CC24DD24E0E0F0E047C078
:1020F000A615B705A9F5CD91DC911197CE010296F1
:102100008A159B0568F1CE018A199B0902961296E1
:102110002C91129713963C91059758F0F401228365
:102120003383CA19DB09D183C083D7016D937C93B4
:1021300009C04E5F5F4F4C0F5D1FF7015183408315
:10214000C901FC01C114D10431F0D6011396FC93EE
:10215000EE9312974EC0F093D404E093D30449C099
:102160008D919C911197E817F90708F4FC016D0116
:1021700012968C91129713969C919C01D9011097FD
:1021800009F0B6CF8091D1049091D20486159705BD
:10219000E9F4E617F707D0F4209175023091760242
:1021A0002115310541F42DB73EB780917102909110
:1021B0007202281B390B82169306C8F49092D2043F
:1021C0008092D104F7017183608313C0CB010E9418
:1021D000F30EEC01009759F0D7014D915C91B801D5
:1021E0000E948E00C8010E94900F8E0102C000E084
:1021F00010E0C801DF91CF911F910F91FF90EF90F8
:10220000DF90CF90BF90AF909F908F907F906F9016
:102210000895FC0110820895EF92FF920F931F938F
:10222000CF93DF93EC017A018B018B859C85AD8583
:10223000BE859A01AB01281B390B4A0B5B0B8981C8
:102240009A81AB81BC81281739074A075B07E0F008
:102250008881813019F0823071F404C0E985FA85F3
:10226000099509C060E08885882309F461E06887E2
:102270008F810E94F807EB86FC860D871E878F856D
:1022800098890196988B8F872D813E8137FD06C0F6
:102290008F859889821793070CF01882DF91CF9170
:1022A0001F910F91FF90EF9008955058BB27AA27D8
:1022B0000ED075C166D130F06BD120F031F49F3F64
:1022C00011F41EF45BC10EF4E095E7FB51C1E92F58
:1022D00077D180F3BA17620773078407950718F060
:1022E00071F49EF58FC10EF4E0950B2EBA2FA02D40
:1022F0000B01B90190010C01CA01A0011124FF27B3
:10230000591B99F0593F50F4503E68F11A16F040AD
:10231000A22F232F342F4427585FF3CF46953795AC
:102320002795A795F0405395C9F77EF41F16BA0B71
:10233000620B730B840BBAF09150A1F0FF0FBB1F1F
:10234000661F771F881FC2F70EC0BA0F621F731F68
:10235000841F48F4879577956795B795F7959E3FC5
:1023600008F0B3CF9395880F08F09927EE0F979553
:1023700087950895D9D008F481E008950CD00FC155
:1023800007D140F0FED030F021F45F3F19F0F0C0EB
:10239000511139C1F3C014D198F39923C9F35523CE
:1023A000B1F3951B550BBB27AA2762177307840748
:1023B00038F09F5F5F4F220F331F441FAA1FA9F3FE
:1023C00033D00E2E3AF0E0E830D091505040E695F0
:1023D000001CCAF729D0FE2F27D0660F771F881F51
:1023E000BB1F261737074807AB07B0E809F0BB0B40
:1023F000802DBF01FF2793585F4F2AF09E3F510564
:1024000068F0B6C000C15F3FECF3983EDCF3869500
:1024100077956795B795F7959F5FC9F7880F911DD9
:102420009695879597F90895E1E0660F771F881FC5
:10243000BB1F621773078407BA0720F0621B730B78
:10244000840BBA0BEE1F88F7E095089504D06894CA
:10245000B111D9C00895BCD088F09F5790F0B92F22
:102460009927B751A0F0D1F0660F771F881F991FE9
:102470001AF0BA95C9F712C0B13081F0C3D0B1E0FB
:102480000895C0C0672F782F8827B85F39F0B93F0B
:10249000CCF3869577956795B395D9F73EF49095EB
:1024A0008095709561957F4F8F4F9F4F0895E89469
:1024B00009C097FB3EF490958095709561957F4F8C
:1024C0008F4F9F4F9923A9F0F92F96E9BB2793953A
:1024D000F695879577956795B795F111F8CFFAF44A
:1024E000BB0F11F460FF1BC06F5F7F4F8F4F9F4F7B
:1024F00016C0882311F096E911C0772321F09EE8D9
:10250000872F762F05C0662371F096E8862F70E03E
:1025100060E02AF09A95660F771F881FDAF7880F18
:102520009695879597F90895990F0008550FAA0B6E
:10253000E0E8FEEF16161706E807F907C0F01216D6
:102540001306E407F50798F0621B730B840B950BD9
:1025500039F40A2661F0232B242B252B21F408952E
:102560000A2609F4A140A6958FEF811D811D0895CB
:1025700097F99F6780E870E060E008959FEF80EC36
:10258000089500240A9416161706180609060895D9
:1025900000240A9412161306140605060895092E3F
:1025A0000394000C11F4882352F0BB0F40F4BF2BAE
:1025B00011F460FF04C06F5F7F4F8F4F9F4F0895EE
:1025C00057FD9058440F551F59F05F3F71F04795E4
:1025D000880F97FB991F61F09F3F79F087950895C9
:1025E000121613061406551FF2CF4695F1DF08C0E8
:1025F000161617061806991FF1CF86957105610505
:1026000008940895E894BB2766277727CB0197F9AC
:1026100008958ADF08F48FEF08950BD0C0CFB1DFA3
:1026200028F0B6DF18F0952309F0A2CFA7CF112428
:10263000EACFC6DFA0F3959FD1F3950F50E0551F69
:10264000629FF001729FBB27F00DB11D639FAA2707
:10265000F00DB11DAA1F649F6627B00DA11D661F56
:10266000829F2227B00DA11D621F739FB00DA11D77
:10267000621F839FA00D611D221F749F3327A00D31
:10268000611D231F849F600D211D822F762F6A2FCD
:1026900011249F5750408AF0E1F088234AF0EE0F52
:1026A000FF1FBB1F661F771F881F91505040A9F75F
:1026B0009E3F510570F05CCFA6CF5F3FECF3983E94
:1026C000DCF3869577956795B795F795E7959F5FC6
:1026D000C1F7FE2B880F911D9695879597F9089560
:1026E00023DF880B990B0895629FD001739FF0013F
:1026F000829FE00DF11D649FE00DF11D929FF00D92
:10270000839FF00D749FF00D659FF00D9927729FC8
:10271000B00DE11DF91F639FB00DE11DF91FBD0153
:10272000CF0111240895A1E21A2EAA1BBB1BFD01A3
:102730000DC0AA1FBB1FEE1FFF1FA217B307E407A0
:10274000F50720F0A21BB30BE40BF50B661F771FF8
:10275000881F991F1A9469F76095709580959095D8
:102760009B01AC01BD01CF010895EE0FFF1F059045
:10277000F491E02D099410E0C6ECD0E004C0FE0115
:102780000E94B7132296C83CD107C9F7F894FFCF2F
:10279000002A2A2A2A2A2A2A2A2A2A2A2A2A2A2AC3
:1027A00000773A20757000733A20646F776E00618D
:1027B0003A2070726576696F757300643A207365AC
:1027C0006C656374002D2D2D2D2D2B2000202B2DBD
:1027D0002D2D2D2D002A200020200046616E3A204C
:1027E000004F6E202D205370656564203D20004F02
:1027F0006666200046616E005475726E206F6E0032
:102800005475726E206F666600496E6372656173FF
:102810006520537065656400446563726561736526
:10282000205370656564004C4544005475726E20F9
:102830006F6E005475726E206F666600546F676726
:102840006C65206F6E2F6F66660050574D20526189
:102850006D702075700052656C61793A2053746117
:102860007465203D2000206F6E00206F6666005268
:10287000656C6179005475726E206F6E00547572CC
:102880006E206F666600546F67676C65206F6E2FF1
:102890006F666600537461727420636F6E74696E44
:1028A000756F757320746F67676C696E670053741A
:1028B0006F7020636F6E74696E756F757320746FBF
:1028C00067676C696E67005641444A3A200056615A
:1028D0006C7565203D200020566F6C746167652023
:1028E0003D200042656E63684275644545006E6137
:1028F0006E00696E66006F7666002E00FFFFFFFFB8
:10290000018000D504000000000000C7095D0A5DD9
:10291000098E096E09B70900000000240D000000AF
:0429200000050D00A1
:00000001FF
